{
	"contracts/SimpleStorage.sol": {
		"SimpleStorage": {
			"abi": [
				{
					"inputs": [
						{
							"internalType": "string",
							"name": "_name",
							"type": "string"
						},
						{
							"internalType": "uint256",
							"name": "_favoriteNumber",
							"type": "uint256"
						}
					],
					"name": "addPerson",
					"outputs": [],
					"stateMutability": "nonpayable",
					"type": "function"
				},
				{
					"inputs": [
						{
							"internalType": "string",
							"name": "",
							"type": "string"
						}
					],
					"name": "nameToFavoriteNumber",
					"outputs": [
						{
							"internalType": "uint256",
							"name": "",
							"type": "uint256"
						}
					],
					"stateMutability": "view",
					"type": "function"
				},
				{
					"inputs": [
						{
							"internalType": "uint256",
							"name": "",
							"type": "uint256"
						}
					],
					"name": "people",
					"outputs": [
						{
							"internalType": "uint256",
							"name": "favoriteNumber",
							"type": "uint256"
						},
						{
							"internalType": "string",
							"name": "name",
							"type": "string"
						}
					],
					"stateMutability": "view",
					"type": "function"
				},
				{
					"inputs": [],
					"name": "retrieve",
					"outputs": [
						{
							"internalType": "uint256",
							"name": "",
							"type": "uint256"
						}
					],
					"stateMutability": "view",
					"type": "function"
				},
				{
					"inputs": [
						{
							"internalType": "uint256",
							"name": "_favoriteNumber",
							"type": "uint256"
						}
					],
					"name": "store",
					"outputs": [],
					"stateMutability": "nonpayable",
					"type": "function"
				}
			],
			"devdoc": {
				"kind": "dev",
				"methods": {},
				"version": 1
			},
			"evm": {
				"assembly": "    /* \"contracts/SimpleStorage.sol\":145:834  contract SimpleStorage {... */\n  mstore(0x40, 0x80)\n  callvalue\n  dup1\n  iszero\n  tag_1\n  jumpi\n  0x00\n  dup1\n  revert\ntag_1:\n  pop\n  dataSize(sub_0)\n  dup1\n  dataOffset(sub_0)\n  0x00\n  codecopy\n  0x00\n  return\nstop\n\nsub_0: assembly {\n        /* \"contracts/SimpleStorage.sol\":145:834  contract SimpleStorage {... */\n      mstore(0x40, 0x80)\n      callvalue\n      dup1\n      iszero\n      tag_1\n      jumpi\n      0x00\n      dup1\n      revert\n    tag_1:\n      pop\n      jumpi(tag_2, lt(calldatasize, 0x04))\n      shr(0xe0, calldataload(0x00))\n      dup1\n      0x2e64cec1\n      eq\n      tag_3\n      jumpi\n      dup1\n      0x6057361d\n      eq\n      tag_4\n      jumpi\n      dup1\n      0x6f760f41\n      eq\n      tag_5\n      jumpi\n      dup1\n      0x8bab8dd5\n      eq\n      tag_6\n      jumpi\n      dup1\n      0x9e7a13ad\n      eq\n      tag_7\n      jumpi\n    tag_2:\n      0x00\n      dup1\n      revert\n        /* \"contracts/SimpleStorage.sol\":539:629  function retrieve() public view returns (uint256){... */\n    tag_3:\n        /* \"contracts/SimpleStorage.sol\":580:587  uint256 */\n      0x00\n        /* \"contracts/SimpleStorage.sol\":606:620  favoriteNumber */\n      sload\n        /* \"contracts/SimpleStorage.sol\":539:629  function retrieve() public view returns (uint256){... */\n    tag_8:\n      mload(0x40)\n        /* \"#utility.yul\":160:185   */\n      swap1\n      dup2\n      mstore\n        /* \"#utility.yul\":148:150   */\n      0x20\n        /* \"#utility.yul\":133:151   */\n      add\n        /* \"contracts/SimpleStorage.sol\":539:629  function retrieve() public view returns (uint256){... */\n    tag_10:\n      mload(0x40)\n      dup1\n      swap2\n      sub\n      swap1\n      return\n        /* \"contracts/SimpleStorage.sol\":420:527  function store(uint256 _favoriteNumber) public virtual {... */\n    tag_4:\n      tag_12\n      tag_13\n      calldatasize\n      0x04\n      tag_14\n      jump\t// in\n    tag_13:\n        /* \"contracts/SimpleStorage.sol\":486:500  favoriteNumber */\n      0x00\n        /* \"contracts/SimpleStorage.sol\":486:518  favoriteNumber = _favoriteNumber */\n      sstore\n        /* \"contracts/SimpleStorage.sol\":420:527  function store(uint256 _favoriteNumber) public virtual {... */\n      jump\n    tag_12:\n      stop\n        /* \"contracts/SimpleStorage.sol\":637:831  function addPerson(string memory _name, uint256 _favoriteNumber) public {... */\n    tag_5:\n      tag_12\n      tag_17\n      calldatasize\n      0x04\n      tag_18\n      jump\t// in\n    tag_17:\n      tag_19\n      jump\t// in\n        /* \"contracts/SimpleStorage.sol\":357:411  mapping(string => uint256) public nameToFavoriteNumber */\n    tag_6:\n      tag_8\n      tag_21\n      calldatasize\n      0x04\n      tag_22\n      jump\t// in\n    tag_21:\n      dup1\n      mload\n      0x20\n      dup2\n      dup4\n      add\n      dup2\n      add\n      dup1\n      mload\n      0x02\n      dup3\n      mstore\n      swap3\n      dup3\n      add\n      swap2\n      swap1\n      swap4\n      add\n      keccak256\n      swap2\n      mstore\n      sload\n      dup2\n      jump\n        /* \"contracts/SimpleStorage.sol\":326:348  People[] public people */\n    tag_7:\n      tag_25\n      tag_26\n      calldatasize\n      0x04\n      tag_14\n      jump\t// in\n    tag_26:\n      tag_27\n      jump\t// in\n    tag_25:\n      mload(0x40)\n      tag_10\n      swap3\n      swap2\n      swap1\n      tag_29\n      jump\t// in\n        /* \"contracts/SimpleStorage.sol\":637:831  function addPerson(string memory _name, uint256 _favoriteNumber) public {... */\n    tag_19:\n        /* \"contracts/SimpleStorage.sol\":732:762  People(_favoriteNumber, _name) */\n      0x40\n      dup1\n      mload\n      dup1\n      dup3\n      add\n      swap1\n      swap2\n      mstore\n      dup2\n      dup2\n      mstore\n      0x20\n      dup2\n      add\n      dup4\n      dup2\n      mstore\n        /* \"contracts/SimpleStorage.sol\":720:726  people */\n      0x01\n        /* \"contracts/SimpleStorage.sol\":720:763  people.push(People(_favoriteNumber, _name)) */\n      dup1\n      sload\n      dup1\n      dup3\n      add\n      dup3\n      sstore\n      0x00\n      swap2\n      swap1\n      swap2\n      mstore\n      dup3\n      mload\n      0x02\n      swap1\n      swap2\n      mul\n      0xb10e2d527612073b26eecdfd717e6a320cf44b4afac2b0732d9fcbe2b7fa0cf6\n      dup2\n      add\n      swap2\n      dup3\n      sstore\n      swap2\n      mload\n      swap1\n      swap2\n      0xb10e2d527612073b26eecdfd717e6a320cf44b4afac2b0732d9fcbe2b7fa0cf7\n      add\n      swap1\n      tag_34\n      swap1\n      dup3\n      tag_35\n      jump\t// in\n    tag_34:\n      pop\n      pop\n      pop\n        /* \"contracts/SimpleStorage.sol\":804:819  _favoriteNumber */\n      dup1\n        /* \"contracts/SimpleStorage.sol\":822:823  5 */\n      0x05\n        /* \"contracts/SimpleStorage.sol\":804:823  _favoriteNumber + 5 */\n      tag_36\n      swap2\n      swap1\n      tag_37\n      jump\t// in\n    tag_36:\n        /* \"contracts/SimpleStorage.sol\":774:794  nameToFavoriteNumber */\n      0x02\n        /* \"contracts/SimpleStorage.sol\":795:800  _name */\n      dup4\n        /* \"contracts/SimpleStorage.sol\":774:801  nameToFavoriteNumber[_name] */\n      mload(0x40)\n      tag_38\n      swap2\n      swap1\n      tag_39\n      jump\t// in\n    tag_38:\n      swap1\n      dup2\n      mstore\n      mload(0x40)\n      swap1\n      dup2\n      swap1\n      sub\n      0x20\n      add\n      swap1\n      keccak256\n        /* \"contracts/SimpleStorage.sol\":774:823  nameToFavoriteNumber[_name] = _favoriteNumber + 5 */\n      sstore\n      pop\n      pop\n        /* \"contracts/SimpleStorage.sol\":637:831  function addPerson(string memory _name, uint256 _favoriteNumber) public {... */\n      jump\t// out\n        /* \"contracts/SimpleStorage.sol\":326:348  People[] public people */\n    tag_27:\n      0x01\n      dup2\n      dup2\n      sload\n      dup2\n      lt\n      tag_40\n      jumpi\n      0x00\n      dup1\n      revert\n    tag_40:\n      0x00\n      swap2\n      dup3\n      mstore\n      0x20\n      swap1\n      swap2\n      keccak256\n      0x02\n      swap1\n      swap2\n      mul\n      add\n      dup1\n      sload\n      0x01\n      dup3\n      add\n      dup1\n      sload\n      swap2\n      swap4\n      pop\n      swap1\n      tag_42\n      swap1\n      tag_43\n      jump\t// in\n    tag_42:\n      dup1\n      0x1f\n      add\n      0x20\n      dup1\n      swap2\n      div\n      mul\n      0x20\n      add\n      mload(0x40)\n      swap1\n      dup2\n      add\n      0x40\n      mstore\n      dup1\n      swap3\n      swap2\n      swap1\n      dup2\n      dup2\n      mstore\n      0x20\n      add\n      dup3\n      dup1\n      sload\n      tag_44\n      swap1\n      tag_43\n      jump\t// in\n    tag_44:\n      dup1\n      iszero\n      tag_45\n      jumpi\n      dup1\n      0x1f\n      lt\n      tag_46\n      jumpi\n      0x0100\n      dup1\n      dup4\n      sload\n      div\n      mul\n      dup4\n      mstore\n      swap2\n      0x20\n      add\n      swap2\n      jump(tag_45)\n    tag_46:\n      dup3\n      add\n      swap2\n      swap1\n      0x00\n      mstore\n      keccak256(0x00, 0x20)\n      swap1\n    tag_47:\n      dup2\n      sload\n      dup2\n      mstore\n      swap1\n      0x01\n      add\n      swap1\n      0x20\n      add\n      dup1\n      dup4\n      gt\n      tag_47\n      jumpi\n      dup3\n      swap1\n      sub\n      0x1f\n      and\n      dup3\n      add\n      swap2\n    tag_45:\n      pop\n      pop\n      pop\n      pop\n      pop\n      swap1\n      pop\n      dup3\n      jump\t// out\n        /* \"#utility.yul\":196:422   */\n    tag_14:\n        /* \"#utility.yul\":255:261   */\n      0x00\n        /* \"#utility.yul\":308:310   */\n      0x20\n        /* \"#utility.yul\":296:305   */\n      dup3\n        /* \"#utility.yul\":287:294   */\n      dup5\n        /* \"#utility.yul\":283:306   */\n      sub\n        /* \"#utility.yul\":279:311   */\n      slt\n        /* \"#utility.yul\":276:328   */\n      iszero\n      tag_56\n      jumpi\n        /* \"#utility.yul\":324:325   */\n      0x00\n        /* \"#utility.yul\":321:322   */\n      dup1\n        /* \"#utility.yul\":314:326   */\n      revert\n        /* \"#utility.yul\":276:328   */\n    tag_56:\n      pop\n        /* \"#utility.yul\":369:392   */\n      calldataload\n      swap2\n        /* \"#utility.yul\":196:422   */\n      swap1\n      pop\n      jump\t// out\n        /* \"#utility.yul\":427:554   */\n    tag_48:\n        /* \"#utility.yul\":488:498   */\n      0x4e487b71\n        /* \"#utility.yul\":483:486   */\n      0xe0\n        /* \"#utility.yul\":479:499   */\n      shl\n        /* \"#utility.yul\":476:477   */\n      0x00\n        /* \"#utility.yul\":469:500   */\n      mstore\n        /* \"#utility.yul\":519:523   */\n      0x41\n        /* \"#utility.yul\":516:517   */\n      0x04\n        /* \"#utility.yul\":509:524   */\n      mstore\n        /* \"#utility.yul\":543:547   */\n      0x24\n        /* \"#utility.yul\":540:541   */\n      0x00\n        /* \"#utility.yul\":533:548   */\n      revert\n        /* \"#utility.yul\":559:1285   */\n    tag_49:\n        /* \"#utility.yul\":602:607   */\n      0x00\n        /* \"#utility.yul\":655:658   */\n      dup3\n        /* \"#utility.yul\":648:652   */\n      0x1f\n        /* \"#utility.yul\":640:646   */\n      dup4\n        /* \"#utility.yul\":636:653   */\n      add\n        /* \"#utility.yul\":632:659   */\n      slt\n        /* \"#utility.yul\":622:677   */\n      tag_59\n      jumpi\n        /* \"#utility.yul\":673:674   */\n      0x00\n        /* \"#utility.yul\":670:671   */\n      dup1\n        /* \"#utility.yul\":663:675   */\n      revert\n        /* \"#utility.yul\":622:677   */\n    tag_59:\n        /* \"#utility.yul\":713:719   */\n      dup2\n        /* \"#utility.yul\":700:720   */\n      calldataload\n        /* \"#utility.yul\":743:761   */\n      0xffffffffffffffff\n        /* \"#utility.yul\":735:741   */\n      dup2\n        /* \"#utility.yul\":732:762   */\n      gt\n        /* \"#utility.yul\":729:785   */\n      iszero\n      tag_61\n      jumpi\n        /* \"#utility.yul\":765:783   */\n      tag_61\n      tag_48\n      jump\t// in\n    tag_61:\n        /* \"#utility.yul\":814:816   */\n      0x40\n        /* \"#utility.yul\":808:817   */\n      mload\n        /* \"#utility.yul\":906:908   */\n      0x1f\n        /* \"#utility.yul\":868:885   */\n      dup3\n      add\n      not(0x1f)\n        /* \"#utility.yul\":864:895   */\n      swap1\n      dup2\n      and\n        /* \"#utility.yul\":897:899   */\n      0x3f\n        /* \"#utility.yul\":860:900   */\n      add\n        /* \"#utility.yul\":856:910   */\n      and\n        /* \"#utility.yul\":844:911   */\n      dup2\n      add\n        /* \"#utility.yul\":941:959   */\n      0xffffffffffffffff\n        /* \"#utility.yul\":926:960   */\n      dup2\n      gt\n        /* \"#utility.yul\":962:984   */\n      dup3\n      dup3\n      lt\n        /* \"#utility.yul\":923:985   */\n      or\n        /* \"#utility.yul\":920:1008   */\n      iszero\n      tag_63\n      jumpi\n        /* \"#utility.yul\":988:1006   */\n      tag_63\n      tag_48\n      jump\t// in\n    tag_63:\n        /* \"#utility.yul\":1024:1026   */\n      0x40\n        /* \"#utility.yul\":1017:1039   */\n      mstore\n        /* \"#utility.yul\":1048:1070   */\n      dup2\n      dup2\n      mstore\n        /* \"#utility.yul\":1089:1108   */\n      dup4\n      dup3\n      add\n        /* \"#utility.yul\":1110:1114   */\n      0x20\n        /* \"#utility.yul\":1085:1115   */\n      add\n        /* \"#utility.yul\":1082:1121   */\n      dup6\n      lt\n        /* \"#utility.yul\":1079:1138   */\n      iszero\n      tag_64\n      jumpi\n        /* \"#utility.yul\":1134:1135   */\n      0x00\n        /* \"#utility.yul\":1131:1132   */\n      dup1\n        /* \"#utility.yul\":1124:1136   */\n      revert\n        /* \"#utility.yul\":1079:1138   */\n    tag_64:\n        /* \"#utility.yul\":1198:1204   */\n      dup2\n        /* \"#utility.yul\":1191:1195   */\n      0x20\n        /* \"#utility.yul\":1183:1189   */\n      dup6\n        /* \"#utility.yul\":1179:1196   */\n      add\n        /* \"#utility.yul\":1172:1176   */\n      0x20\n        /* \"#utility.yul\":1164:1170   */\n      dup4\n        /* \"#utility.yul\":1160:1177   */\n      add\n        /* \"#utility.yul\":1147:1205   */\n      calldatacopy\n        /* \"#utility.yul\":1253:1254   */\n      0x00\n        /* \"#utility.yul\":1225:1244   */\n      swap2\n      dup2\n      add\n        /* \"#utility.yul\":1246:1250   */\n      0x20\n        /* \"#utility.yul\":1221:1251   */\n      add\n        /* \"#utility.yul\":1214:1255   */\n      swap2\n      swap1\n      swap2\n      mstore\n        /* \"#utility.yul\":1229:1235   */\n      swap4\n        /* \"#utility.yul\":559:1285   */\n      swap3\n      pop\n      pop\n      pop\n      jump\t// out\n        /* \"#utility.yul\":1290:1726   */\n    tag_18:\n        /* \"#utility.yul\":1368:1374   */\n      0x00\n        /* \"#utility.yul\":1376:1382   */\n      dup1\n        /* \"#utility.yul\":1429:1431   */\n      0x40\n        /* \"#utility.yul\":1417:1426   */\n      dup4\n        /* \"#utility.yul\":1408:1415   */\n      dup6\n        /* \"#utility.yul\":1404:1427   */\n      sub\n        /* \"#utility.yul\":1400:1432   */\n      slt\n        /* \"#utility.yul\":1397:1449   */\n      iszero\n      tag_66\n      jumpi\n        /* \"#utility.yul\":1445:1446   */\n      0x00\n        /* \"#utility.yul\":1442:1443   */\n      dup1\n        /* \"#utility.yul\":1435:1447   */\n      revert\n        /* \"#utility.yul\":1397:1449   */\n    tag_66:\n        /* \"#utility.yul\":1485:1494   */\n      dup3\n        /* \"#utility.yul\":1472:1495   */\n      calldataload\n        /* \"#utility.yul\":1518:1536   */\n      0xffffffffffffffff\n        /* \"#utility.yul\":1510:1516   */\n      dup2\n        /* \"#utility.yul\":1507:1537   */\n      gt\n        /* \"#utility.yul\":1504:1554   */\n      iszero\n      tag_67\n      jumpi\n        /* \"#utility.yul\":1550:1551   */\n      0x00\n        /* \"#utility.yul\":1547:1548   */\n      dup1\n        /* \"#utility.yul\":1540:1552   */\n      revert\n        /* \"#utility.yul\":1504:1554   */\n    tag_67:\n        /* \"#utility.yul\":1573:1623   */\n      tag_68\n        /* \"#utility.yul\":1615:1622   */\n      dup6\n        /* \"#utility.yul\":1606:1612   */\n      dup3\n        /* \"#utility.yul\":1595:1604   */\n      dup7\n        /* \"#utility.yul\":1591:1613   */\n      add\n        /* \"#utility.yul\":1573:1623   */\n      tag_49\n      jump\t// in\n    tag_68:\n        /* \"#utility.yul\":1563:1623   */\n      swap6\n        /* \"#utility.yul\":1692:1694   */\n      0x20\n        /* \"#utility.yul\":1677:1695   */\n      swap5\n      swap1\n      swap5\n      add\n        /* \"#utility.yul\":1664:1696   */\n      calldataload\n      swap5\n      pop\n      pop\n      pop\n      pop\n        /* \"#utility.yul\":1290:1726   */\n      jump\t// out\n        /* \"#utility.yul\":1731:2053   */\n    tag_22:\n        /* \"#utility.yul\":1800:1806   */\n      0x00\n        /* \"#utility.yul\":1853:1855   */\n      0x20\n        /* \"#utility.yul\":1841:1850   */\n      dup3\n        /* \"#utility.yul\":1832:1839   */\n      dup5\n        /* \"#utility.yul\":1828:1851   */\n      sub\n        /* \"#utility.yul\":1824:1856   */\n      slt\n        /* \"#utility.yul\":1821:1873   */\n      iszero\n      tag_70\n      jumpi\n        /* \"#utility.yul\":1869:1870   */\n      0x00\n        /* \"#utility.yul\":1866:1867   */\n      dup1\n        /* \"#utility.yul\":1859:1871   */\n      revert\n        /* \"#utility.yul\":1821:1873   */\n    tag_70:\n        /* \"#utility.yul\":1909:1918   */\n      dup2\n        /* \"#utility.yul\":1896:1919   */\n      calldataload\n        /* \"#utility.yul\":1942:1960   */\n      0xffffffffffffffff\n        /* \"#utility.yul\":1934:1940   */\n      dup2\n        /* \"#utility.yul\":1931:1961   */\n      gt\n        /* \"#utility.yul\":1928:1978   */\n      iszero\n      tag_71\n      jumpi\n        /* \"#utility.yul\":1974:1975   */\n      0x00\n        /* \"#utility.yul\":1971:1972   */\n      dup1\n        /* \"#utility.yul\":1964:1976   */\n      revert\n        /* \"#utility.yul\":1928:1978   */\n    tag_71:\n        /* \"#utility.yul\":1997:2047   */\n      tag_72\n        /* \"#utility.yul\":2039:2046   */\n      dup5\n        /* \"#utility.yul\":2030:2036   */\n      dup3\n        /* \"#utility.yul\":2019:2028   */\n      dup6\n        /* \"#utility.yul\":2015:2037   */\n      add\n        /* \"#utility.yul\":1997:2047   */\n      tag_49\n      jump\t// in\n    tag_72:\n        /* \"#utility.yul\":1987:2047   */\n      swap5\n        /* \"#utility.yul\":1731:2053   */\n      swap4\n      pop\n      pop\n      pop\n      pop\n      jump\t// out\n        /* \"#utility.yul\":2058:2547   */\n    tag_29:\n        /* \"#utility.yul\":2235:2241   */\n      dup3\n        /* \"#utility.yul\":2224:2233   */\n      dup2\n        /* \"#utility.yul\":2217:2242   */\n      mstore\n        /* \"#utility.yul\":2278:2280   */\n      0x40\n        /* \"#utility.yul\":2273:2275   */\n      0x20\n        /* \"#utility.yul\":2262:2271   */\n      dup3\n        /* \"#utility.yul\":2258:2276   */\n      add\n        /* \"#utility.yul\":2251:2281   */\n      mstore\n        /* \"#utility.yul\":2198:2202   */\n      0x00\n        /* \"#utility.yul\":2310:2316   */\n      dup3\n        /* \"#utility.yul\":2304:2317   */\n      mload\n        /* \"#utility.yul\":2353:2359   */\n      dup1\n        /* \"#utility.yul\":2348:2350   */\n      0x40\n        /* \"#utility.yul\":2337:2346   */\n      dup5\n        /* \"#utility.yul\":2333:2351   */\n      add\n        /* \"#utility.yul\":2326:2360   */\n      mstore\n        /* \"#utility.yul\":2412:2418   */\n      dup1\n        /* \"#utility.yul\":2407:2409   */\n      0x20\n        /* \"#utility.yul\":2399:2405   */\n      dup6\n        /* \"#utility.yul\":2395:2410   */\n      add\n        /* \"#utility.yul\":2390:2392   */\n      0x60\n        /* \"#utility.yul\":2379:2388   */\n      dup6\n        /* \"#utility.yul\":2375:2393   */\n      add\n        /* \"#utility.yul\":2369:2419   */\n      mcopy\n        /* \"#utility.yul\":2468:2469   */\n      0x00\n        /* \"#utility.yul\":2463:2465   */\n      0x60\n        /* \"#utility.yul\":2454:2460   */\n      dup3\n        /* \"#utility.yul\":2443:2452   */\n      dup6\n        /* \"#utility.yul\":2439:2461   */\n      add\n        /* \"#utility.yul\":2435:2466   */\n      add\n        /* \"#utility.yul\":2428:2470   */\n      mstore\n        /* \"#utility.yul\":2538:2540   */\n      0x60\n        /* \"#utility.yul\":2531:2533   */\n      0x1f\n        /* \"#utility.yul\":2527:2534   */\n      not\n        /* \"#utility.yul\":2522:2524   */\n      0x1f\n        /* \"#utility.yul\":2514:2520   */\n      dup4\n        /* \"#utility.yul\":2510:2525   */\n      add\n        /* \"#utility.yul\":2506:2535   */\n      and\n        /* \"#utility.yul\":2495:2504   */\n      dup5\n        /* \"#utility.yul\":2491:2536   */\n      add\n        /* \"#utility.yul\":2487:2541   */\n      add\n        /* \"#utility.yul\":2479:2541   */\n      swap2\n      pop\n      pop\n        /* \"#utility.yul\":2058:2547   */\n      swap4\n      swap3\n      pop\n      pop\n      pop\n      jump\t// out\n        /* \"#utility.yul\":2552:2932   */\n    tag_43:\n        /* \"#utility.yul\":2631:2632   */\n      0x01\n        /* \"#utility.yul\":2627:2639   */\n      dup2\n      dup2\n      shr\n      swap1\n        /* \"#utility.yul\":2674:2686   */\n      dup3\n      and\n      dup1\n        /* \"#utility.yul\":2695:2756   */\n      tag_75\n      jumpi\n        /* \"#utility.yul\":2749:2753   */\n      0x7f\n        /* \"#utility.yul\":2741:2747   */\n      dup3\n        /* \"#utility.yul\":2737:2754   */\n      and\n        /* \"#utility.yul\":2727:2754   */\n      swap2\n      pop\n        /* \"#utility.yul\":2695:2756   */\n    tag_75:\n        /* \"#utility.yul\":2802:2804   */\n      0x20\n        /* \"#utility.yul\":2794:2800   */\n      dup3\n        /* \"#utility.yul\":2791:2805   */\n      lt\n        /* \"#utility.yul\":2771:2789   */\n      dup2\n        /* \"#utility.yul\":2768:2806   */\n      sub\n        /* \"#utility.yul\":2765:2926   */\n      tag_76\n      jumpi\n        /* \"#utility.yul\":2848:2858   */\n      0x4e487b71\n        /* \"#utility.yul\":2843:2846   */\n      0xe0\n        /* \"#utility.yul\":2839:2859   */\n      shl\n        /* \"#utility.yul\":2836:2837   */\n      0x00\n        /* \"#utility.yul\":2829:2860   */\n      mstore\n        /* \"#utility.yul\":2883:2887   */\n      0x22\n        /* \"#utility.yul\":2880:2881   */\n      0x04\n        /* \"#utility.yul\":2873:2888   */\n      mstore\n        /* \"#utility.yul\":2911:2915   */\n      0x24\n        /* \"#utility.yul\":2908:2909   */\n      0x00\n        /* \"#utility.yul\":2901:2916   */\n      revert\n        /* \"#utility.yul\":2765:2926   */\n    tag_76:\n      pop\n        /* \"#utility.yul\":2552:2932   */\n      swap2\n      swap1\n      pop\n      jump\t// out\n        /* \"#utility.yul\":3063:3581   */\n    tag_51:\n        /* \"#utility.yul\":3165:3167   */\n      0x1f\n        /* \"#utility.yul\":3160:3163   */\n      dup3\n        /* \"#utility.yul\":3157:3168   */\n      gt\n        /* \"#utility.yul\":3154:3575   */\n      iszero\n      tag_79\n      jumpi\n        /* \"#utility.yul\":3201:3206   */\n      dup1\n        /* \"#utility.yul\":3198:3199   */\n      0x00\n        /* \"#utility.yul\":3191:3207   */\n      mstore\n        /* \"#utility.yul\":3245:3249   */\n      0x20\n        /* \"#utility.yul\":3242:3243   */\n      0x00\n        /* \"#utility.yul\":3232:3250   */\n      keccak256\n        /* \"#utility.yul\":3315:3317   */\n      0x1f\n        /* \"#utility.yul\":3303:3313   */\n      dup5\n        /* \"#utility.yul\":3299:3318   */\n      add\n        /* \"#utility.yul\":3296:3297   */\n      0x05\n        /* \"#utility.yul\":3292:3319   */\n      shr\n        /* \"#utility.yul\":3286:3290   */\n      dup2\n        /* \"#utility.yul\":3282:3320   */\n      add\n        /* \"#utility.yul\":3351:3355   */\n      0x20\n        /* \"#utility.yul\":3339:3349   */\n      dup6\n        /* \"#utility.yul\":3336:3356   */\n      lt\n        /* \"#utility.yul\":3333:3380   */\n      iszero\n      tag_80\n      jumpi\n      pop\n        /* \"#utility.yul\":3374:3378   */\n      dup1\n        /* \"#utility.yul\":3333:3380   */\n    tag_80:\n        /* \"#utility.yul\":3429:3431   */\n      0x1f\n        /* \"#utility.yul\":3424:3427   */\n      dup5\n        /* \"#utility.yul\":3420:3432   */\n      add\n        /* \"#utility.yul\":3417:3418   */\n      0x05\n        /* \"#utility.yul\":3413:3433   */\n      shr\n        /* \"#utility.yul\":3407:3411   */\n      dup3\n        /* \"#utility.yul\":3403:3434   */\n      add\n        /* \"#utility.yul\":3393:3434   */\n      swap2\n      pop\n        /* \"#utility.yul\":3484:3565   */\n    tag_81:\n        /* \"#utility.yul\":3502:3504   */\n      dup2\n        /* \"#utility.yul\":3495:3500   */\n      dup2\n        /* \"#utility.yul\":3492:3505   */\n      lt\n        /* \"#utility.yul\":3484:3565   */\n      iszero\n      tag_83\n      jumpi\n        /* \"#utility.yul\":3561:3562   */\n      0x00\n        /* \"#utility.yul\":3547:3563   */\n      dup2\n      sstore\n        /* \"#utility.yul\":3528:3529   */\n      0x01\n        /* \"#utility.yul\":3517:3530   */\n      add\n        /* \"#utility.yul\":3484:3565   */\n      jump(tag_81)\n    tag_83:\n        /* \"#utility.yul\":3488:3491   */\n      pop\n      pop\n        /* \"#utility.yul\":3154:3575   */\n    tag_79:\n        /* \"#utility.yul\":3063:3581   */\n      pop\n      pop\n      pop\n      jump\t// out\n        /* \"#utility.yul\":3757:5056   */\n    tag_35:\n        /* \"#utility.yul\":3883:3886   */\n      dup2\n        /* \"#utility.yul\":3877:3887   */\n      mload\n        /* \"#utility.yul\":3910:3928   */\n      0xffffffffffffffff\n        /* \"#utility.yul\":3902:3908   */\n      dup2\n        /* \"#utility.yul\":3899:3929   */\n      gt\n        /* \"#utility.yul\":3896:3952   */\n      iszero\n      tag_87\n      jumpi\n        /* \"#utility.yul\":3932:3950   */\n      tag_87\n      tag_48\n      jump\t// in\n    tag_87:\n        /* \"#utility.yul\":3961:4058   */\n      tag_88\n        /* \"#utility.yul\":4051:4057   */\n      dup2\n        /* \"#utility.yul\":4011:4049   */\n      tag_89\n        /* \"#utility.yul\":4043:4047   */\n      dup5\n        /* \"#utility.yul\":4037:4048   */\n      sload\n        /* \"#utility.yul\":4011:4049   */\n      tag_43\n      jump\t// in\n    tag_89:\n        /* \"#utility.yul\":4005:4009   */\n      dup5\n        /* \"#utility.yul\":3961:4058   */\n      tag_51\n      jump\t// in\n    tag_88:\n        /* \"#utility.yul\":4107:4111   */\n      0x20\n        /* \"#utility.yul\":4138:4140   */\n      0x1f\n        /* \"#utility.yul\":4127:4141   */\n      dup3\n      gt\n        /* \"#utility.yul\":4155:4156   */\n      0x01\n        /* \"#utility.yul\":4150:4799   */\n      dup2\n      eq\n      tag_91\n      jumpi\n        /* \"#utility.yul\":4843:4844   */\n      0x00\n        /* \"#utility.yul\":4860:4866   */\n      dup4\n        /* \"#utility.yul\":4857:4946   */\n      iszero\n      tag_92\n      jumpi\n      pop\n        /* \"#utility.yul\":4912:4931   */\n      dup5\n      dup3\n      add\n        /* \"#utility.yul\":4906:4932   */\n      mload\n        /* \"#utility.yul\":4857:4946   */\n    tag_92:\n      not(0x00)\n        /* \"#utility.yul\":3714:3715   */\n      0x03\n        /* \"#utility.yul\":3710:3721   */\n      dup6\n      swap1\n      shl\n        /* \"#utility.yul\":3706:3730   */\n      shr\n        /* \"#utility.yul\":3702:3731   */\n      not\n        /* \"#utility.yul\":3692:3732   */\n      and\n        /* \"#utility.yul\":3738:3739   */\n      0x01\n        /* \"#utility.yul\":3734:3745   */\n      dup5\n      swap1\n      shl\n        /* \"#utility.yul\":3689:3746   */\n      or\n        /* \"#utility.yul\":4959:5040   */\n      dup5\n      sstore\n        /* \"#utility.yul\":4120:5050   */\n      jump(tag_83)\n        /* \"#utility.yul\":4150:4799   */\n    tag_91:\n        /* \"#utility.yul\":3010:3011   */\n      0x00\n        /* \"#utility.yul\":3003:3017   */\n      dup5\n      dup2\n      mstore\n        /* \"#utility.yul\":3047:3051   */\n      0x20\n        /* \"#utility.yul\":3034:3052   */\n      dup2\n      keccak256\n      not(0x1f)\n        /* \"#utility.yul\":4186:4206   */\n      dup6\n      and\n      swap2\n        /* \"#utility.yul\":4304:4526   */\n    tag_95:\n        /* \"#utility.yul\":4318:4325   */\n      dup3\n        /* \"#utility.yul\":4315:4316   */\n      dup2\n        /* \"#utility.yul\":4312:4326   */\n      lt\n        /* \"#utility.yul\":4304:4526   */\n      iszero\n      tag_97\n      jumpi\n        /* \"#utility.yul\":4400:4419   */\n      dup8\n      dup6\n      add\n        /* \"#utility.yul\":4394:4420   */\n      mload\n        /* \"#utility.yul\":4379:4421   */\n      dup3\n      sstore\n        /* \"#utility.yul\":4507:4511   */\n      0x20\n        /* \"#utility.yul\":4492:4512   */\n      swap5\n      dup6\n      add\n      swap5\n        /* \"#utility.yul\":4460:4461   */\n      0x01\n        /* \"#utility.yul\":4448:4462   */\n      swap1\n      swap3\n      add\n      swap2\n        /* \"#utility.yul\":4334:4346   */\n      add\n        /* \"#utility.yul\":4304:4526   */\n      jump(tag_95)\n    tag_97:\n        /* \"#utility.yul\":4308:4311   */\n      pop\n        /* \"#utility.yul\":4554:4560   */\n      dup5\n        /* \"#utility.yul\":4545:4552   */\n      dup3\n        /* \"#utility.yul\":4542:4561   */\n      lt\n        /* \"#utility.yul\":4539:4740   */\n      iszero\n      tag_98\n      jumpi\n        /* \"#utility.yul\":4615:4634   */\n      dup7\n      dup5\n      add\n        /* \"#utility.yul\":4609:4635   */\n      mload\n      not(0x00)\n        /* \"#utility.yul\":4698:4699   */\n      0x03\n        /* \"#utility.yul\":4694:4708   */\n      dup8\n      swap1\n      shl\n        /* \"#utility.yul\":4710:4713   */\n      0xf8\n        /* \"#utility.yul\":4690:4714   */\n      and\n        /* \"#utility.yul\":4686:4723   */\n      shr\n        /* \"#utility.yul\":4682:4724   */\n      not\n        /* \"#utility.yul\":4667:4725   */\n      and\n        /* \"#utility.yul\":4652:4726   */\n      dup2\n      sstore\n        /* \"#utility.yul\":4539:4740   */\n    tag_98:\n      pop\n      pop\n      pop\n      pop\n        /* \"#utility.yul\":4786:4787   */\n      0x01\n        /* \"#utility.yul\":4770:4784   */\n      swap1\n      dup2\n      shl\n        /* \"#utility.yul\":4766:4788   */\n      add\n        /* \"#utility.yul\":4753:4789   */\n      swap1\n      sstore\n      pop\n        /* \"#utility.yul\":3757:5056   */\n      jump\t// out\n        /* \"#utility.yul\":5061:5283   */\n    tag_37:\n        /* \"#utility.yul\":5126:5135   */\n      dup1\n      dup3\n      add\n        /* \"#utility.yul\":5147:5157   */\n      dup1\n      dup3\n      gt\n        /* \"#utility.yul\":5144:5277   */\n      iszero\n      tag_100\n      jumpi\n        /* \"#utility.yul\":5199:5209   */\n      0x4e487b71\n        /* \"#utility.yul\":5194:5197   */\n      0xe0\n        /* \"#utility.yul\":5190:5210   */\n      shl\n        /* \"#utility.yul\":5187:5188   */\n      0x00\n        /* \"#utility.yul\":5180:5211   */\n      mstore\n        /* \"#utility.yul\":5234:5238   */\n      0x11\n        /* \"#utility.yul\":5231:5232   */\n      0x04\n        /* \"#utility.yul\":5224:5239   */\n      mstore\n        /* \"#utility.yul\":5262:5266   */\n      0x24\n        /* \"#utility.yul\":5259:5260   */\n      0x00\n        /* \"#utility.yul\":5252:5267   */\n      revert\n        /* \"#utility.yul\":5144:5277   */\n    tag_100:\n        /* \"#utility.yul\":5061:5283   */\n      swap3\n      swap2\n      pop\n      pop\n      jump\t// out\n        /* \"#utility.yul\":5288:5591   */\n    tag_39:\n        /* \"#utility.yul\":5419:5422   */\n      0x00\n        /* \"#utility.yul\":5457:5463   */\n      dup3\n        /* \"#utility.yul\":5451:5464   */\n      mload\n        /* \"#utility.yul\":5503:5509   */\n      dup1\n        /* \"#utility.yul\":5496:5500   */\n      0x20\n        /* \"#utility.yul\":5488:5494   */\n      dup6\n        /* \"#utility.yul\":5484:5501   */\n      add\n        /* \"#utility.yul\":5479:5482   */\n      dup5\n        /* \"#utility.yul\":5473:5510   */\n      mcopy\n        /* \"#utility.yul\":5565:5566   */\n      0x00\n        /* \"#utility.yul\":5529:5545   */\n      swap3\n      add\n        /* \"#utility.yul\":5554:5567   */\n      swap2\n      dup3\n      mstore\n      pop\n        /* \"#utility.yul\":5529:5545   */\n      swap2\n        /* \"#utility.yul\":5288:5591   */\n      swap1\n      pop\n      jump\t// out\n\n    auxdata: 0xa264697066735822122058ef49589141732d9ef4a36176717c77e95895bebc35a2db1d5e176efebaceb664736f6c634300081a0033\n}\n",
				"bytecode": {
					"linkReferences": {},
					"object": "6080604052348015600e575f80fd5b506105688061001c5f395ff3fe608060405234801561000f575f80fd5b5060043610610055575f3560e01c80632e64cec1146100595780636057361d1461006f5780636f760f41146100835780638bab8dd5146100965780639e7a13ad146100c1575b5f80fd5b5f545b6040519081526020015b60405180910390f35b61008161007d36600461024a565b5f55565b005b610081610091366004610300565b6100e2565b61005c6100a4366004610342565b805160208183018101805160028252928201919093012091525481565b6100d46100cf36600461024a565b610196565b60405161006692919061037c565b60408051808201909152818152602081018381526001805480820182555f91909152825160029091027fb10e2d527612073b26eecdfd717e6a320cf44b4afac2b0732d9fcbe2b7fa0cf68101918255915190917fb10e2d527612073b26eecdfd717e6a320cf44b4afac2b0732d9fcbe2b7fa0cf70190610162908261043c565b50505080600561017291906104f7565b600283604051610182919061051c565b908152604051908190036020019020555050565b600181815481106101a5575f80fd5b5f91825260209091206002909102018054600182018054919350906101c9906103b8565b80601f01602080910402602001604051908101604052809291908181526020018280546101f5906103b8565b80156102405780601f1061021757610100808354040283529160200191610240565b820191905f5260205f20905b81548152906001019060200180831161022357829003601f168201915b5050505050905082565b5f6020828403121561025a575f80fd5b5035919050565b634e487b7160e01b5f52604160045260245ffd5b5f82601f830112610284575f80fd5b813567ffffffffffffffff81111561029e5761029e610261565b604051601f8201601f19908116603f0116810167ffffffffffffffff811182821017156102cd576102cd610261565b6040528181528382016020018510156102e4575f80fd5b816020850160208301375f918101602001919091529392505050565b5f8060408385031215610311575f80fd5b823567ffffffffffffffff811115610327575f80fd5b61033385828601610275565b95602094909401359450505050565b5f60208284031215610352575f80fd5b813567ffffffffffffffff811115610368575f80fd5b61037484828501610275565b949350505050565b828152604060208201525f82518060408401528060208501606085015e5f606082850101526060601f19601f8301168401019150509392505050565b600181811c908216806103cc57607f821691505b6020821081036103ea57634e487b7160e01b5f52602260045260245ffd5b50919050565b601f82111561043757805f5260205f20601f840160051c810160208510156104155750805b601f840160051c820191505b81811015610434575f8155600101610421565b50505b505050565b815167ffffffffffffffff81111561045657610456610261565b61046a8161046484546103b8565b846103f0565b6020601f82116001811461049c575f83156104855750848201515b5f19600385901b1c1916600184901b178455610434565b5f84815260208120601f198516915b828110156104cb57878501518255602094850194600190920191016104ab565b50848210156104e857868401515f19600387901b60f8161c191681555b50505050600190811b01905550565b8082018082111561051657634e487b7160e01b5f52601160045260245ffd5b92915050565b5f82518060208501845e5f92019182525091905056fea264697066735822122058ef49589141732d9ef4a36176717c77e95895bebc35a2db1d5e176efebaceb664736f6c634300081a0033",
					"opcodes": "PUSH1 0x80 PUSH1 0x40 MSTORE CALLVALUE DUP1 ISZERO PUSH1 0xE JUMPI PUSH0 DUP1 REVERT JUMPDEST POP PUSH2 0x568 DUP1 PUSH2 0x1C PUSH0 CODECOPY PUSH0 RETURN INVALID PUSH1 0x80 PUSH1 0x40 MSTORE CALLVALUE DUP1 ISZERO PUSH2 0xF JUMPI PUSH0 DUP1 REVERT JUMPDEST POP PUSH1 0x4 CALLDATASIZE LT PUSH2 0x55 JUMPI PUSH0 CALLDATALOAD PUSH1 0xE0 SHR DUP1 PUSH4 0x2E64CEC1 EQ PUSH2 0x59 JUMPI DUP1 PUSH4 0x6057361D EQ PUSH2 0x6F JUMPI DUP1 PUSH4 0x6F760F41 EQ PUSH2 0x83 JUMPI DUP1 PUSH4 0x8BAB8DD5 EQ PUSH2 0x96 JUMPI DUP1 PUSH4 0x9E7A13AD EQ PUSH2 0xC1 JUMPI JUMPDEST PUSH0 DUP1 REVERT JUMPDEST PUSH0 SLOAD JUMPDEST PUSH1 0x40 MLOAD SWAP1 DUP2 MSTORE PUSH1 0x20 ADD JUMPDEST PUSH1 0x40 MLOAD DUP1 SWAP2 SUB SWAP1 RETURN JUMPDEST PUSH2 0x81 PUSH2 0x7D CALLDATASIZE PUSH1 0x4 PUSH2 0x24A JUMP JUMPDEST PUSH0 SSTORE JUMP JUMPDEST STOP JUMPDEST PUSH2 0x81 PUSH2 0x91 CALLDATASIZE PUSH1 0x4 PUSH2 0x300 JUMP JUMPDEST PUSH2 0xE2 JUMP JUMPDEST PUSH2 0x5C PUSH2 0xA4 CALLDATASIZE PUSH1 0x4 PUSH2 0x342 JUMP JUMPDEST DUP1 MLOAD PUSH1 0x20 DUP2 DUP4 ADD DUP2 ADD DUP1 MLOAD PUSH1 0x2 DUP3 MSTORE SWAP3 DUP3 ADD SWAP2 SWAP1 SWAP4 ADD KECCAK256 SWAP2 MSTORE SLOAD DUP2 JUMP JUMPDEST PUSH2 0xD4 PUSH2 0xCF CALLDATASIZE PUSH1 0x4 PUSH2 0x24A JUMP JUMPDEST PUSH2 0x196 JUMP JUMPDEST PUSH1 0x40 MLOAD PUSH2 0x66 SWAP3 SWAP2 SWAP1 PUSH2 0x37C JUMP JUMPDEST PUSH1 0x40 DUP1 MLOAD DUP1 DUP3 ADD SWAP1 SWAP2 MSTORE DUP2 DUP2 MSTORE PUSH1 0x20 DUP2 ADD DUP4 DUP2 MSTORE PUSH1 0x1 DUP1 SLOAD DUP1 DUP3 ADD DUP3 SSTORE PUSH0 SWAP2 SWAP1 SWAP2 MSTORE DUP3 MLOAD PUSH1 0x2 SWAP1 SWAP2 MUL PUSH32 0xB10E2D527612073B26EECDFD717E6A320CF44B4AFAC2B0732D9FCBE2B7FA0CF6 DUP2 ADD SWAP2 DUP3 SSTORE SWAP2 MLOAD SWAP1 SWAP2 PUSH32 0xB10E2D527612073B26EECDFD717E6A320CF44B4AFAC2B0732D9FCBE2B7FA0CF7 ADD SWAP1 PUSH2 0x162 SWAP1 DUP3 PUSH2 0x43C JUMP JUMPDEST POP POP POP DUP1 PUSH1 0x5 PUSH2 0x172 SWAP2 SWAP1 PUSH2 0x4F7 JUMP JUMPDEST PUSH1 0x2 DUP4 PUSH1 0x40 MLOAD PUSH2 0x182 SWAP2 SWAP1 PUSH2 0x51C JUMP JUMPDEST SWAP1 DUP2 MSTORE PUSH1 0x40 MLOAD SWAP1 DUP2 SWAP1 SUB PUSH1 0x20 ADD SWAP1 KECCAK256 SSTORE POP POP JUMP JUMPDEST PUSH1 0x1 DUP2 DUP2 SLOAD DUP2 LT PUSH2 0x1A5 JUMPI PUSH0 DUP1 REVERT JUMPDEST PUSH0 SWAP2 DUP3 MSTORE PUSH1 0x20 SWAP1 SWAP2 KECCAK256 PUSH1 0x2 SWAP1 SWAP2 MUL ADD DUP1 SLOAD PUSH1 0x1 DUP3 ADD DUP1 SLOAD SWAP2 SWAP4 POP SWAP1 PUSH2 0x1C9 SWAP1 PUSH2 0x3B8 JUMP JUMPDEST DUP1 PUSH1 0x1F ADD PUSH1 0x20 DUP1 SWAP2 DIV MUL PUSH1 0x20 ADD PUSH1 0x40 MLOAD SWAP1 DUP2 ADD PUSH1 0x40 MSTORE DUP1 SWAP3 SWAP2 SWAP1 DUP2 DUP2 MSTORE PUSH1 0x20 ADD DUP3 DUP1 SLOAD PUSH2 0x1F5 SWAP1 PUSH2 0x3B8 JUMP JUMPDEST DUP1 ISZERO PUSH2 0x240 JUMPI DUP1 PUSH1 0x1F LT PUSH2 0x217 JUMPI PUSH2 0x100 DUP1 DUP4 SLOAD DIV MUL DUP4 MSTORE SWAP2 PUSH1 0x20 ADD SWAP2 PUSH2 0x240 JUMP JUMPDEST DUP3 ADD SWAP2 SWAP1 PUSH0 MSTORE PUSH1 0x20 PUSH0 KECCAK256 SWAP1 JUMPDEST DUP2 SLOAD DUP2 MSTORE SWAP1 PUSH1 0x1 ADD SWAP1 PUSH1 0x20 ADD DUP1 DUP4 GT PUSH2 0x223 JUMPI DUP3 SWAP1 SUB PUSH1 0x1F AND DUP3 ADD SWAP2 JUMPDEST POP POP POP POP POP SWAP1 POP DUP3 JUMP JUMPDEST PUSH0 PUSH1 0x20 DUP3 DUP5 SUB SLT ISZERO PUSH2 0x25A JUMPI PUSH0 DUP1 REVERT JUMPDEST POP CALLDATALOAD SWAP2 SWAP1 POP JUMP JUMPDEST PUSH4 0x4E487B71 PUSH1 0xE0 SHL PUSH0 MSTORE PUSH1 0x41 PUSH1 0x4 MSTORE PUSH1 0x24 PUSH0 REVERT JUMPDEST PUSH0 DUP3 PUSH1 0x1F DUP4 ADD SLT PUSH2 0x284 JUMPI PUSH0 DUP1 REVERT JUMPDEST DUP2 CALLDATALOAD PUSH8 0xFFFFFFFFFFFFFFFF DUP2 GT ISZERO PUSH2 0x29E JUMPI PUSH2 0x29E PUSH2 0x261 JUMP JUMPDEST PUSH1 0x40 MLOAD PUSH1 0x1F DUP3 ADD PUSH1 0x1F NOT SWAP1 DUP2 AND PUSH1 0x3F ADD AND DUP2 ADD PUSH8 0xFFFFFFFFFFFFFFFF DUP2 GT DUP3 DUP3 LT OR ISZERO PUSH2 0x2CD JUMPI PUSH2 0x2CD PUSH2 0x261 JUMP JUMPDEST PUSH1 0x40 MSTORE DUP2 DUP2 MSTORE DUP4 DUP3 ADD PUSH1 0x20 ADD DUP6 LT ISZERO PUSH2 0x2E4 JUMPI PUSH0 DUP1 REVERT JUMPDEST DUP2 PUSH1 0x20 DUP6 ADD PUSH1 0x20 DUP4 ADD CALLDATACOPY PUSH0 SWAP2 DUP2 ADD PUSH1 0x20 ADD SWAP2 SWAP1 SWAP2 MSTORE SWAP4 SWAP3 POP POP POP JUMP JUMPDEST PUSH0 DUP1 PUSH1 0x40 DUP4 DUP6 SUB SLT ISZERO PUSH2 0x311 JUMPI PUSH0 DUP1 REVERT JUMPDEST DUP3 CALLDATALOAD PUSH8 0xFFFFFFFFFFFFFFFF DUP2 GT ISZERO PUSH2 0x327 JUMPI PUSH0 DUP1 REVERT JUMPDEST PUSH2 0x333 DUP6 DUP3 DUP7 ADD PUSH2 0x275 JUMP JUMPDEST SWAP6 PUSH1 0x20 SWAP5 SWAP1 SWAP5 ADD CALLDATALOAD SWAP5 POP POP POP POP JUMP JUMPDEST PUSH0 PUSH1 0x20 DUP3 DUP5 SUB SLT ISZERO PUSH2 0x352 JUMPI PUSH0 DUP1 REVERT JUMPDEST DUP2 CALLDATALOAD PUSH8 0xFFFFFFFFFFFFFFFF DUP2 GT ISZERO PUSH2 0x368 JUMPI PUSH0 DUP1 REVERT JUMPDEST PUSH2 0x374 DUP5 DUP3 DUP6 ADD PUSH2 0x275 JUMP JUMPDEST SWAP5 SWAP4 POP POP POP POP JUMP JUMPDEST DUP3 DUP2 MSTORE PUSH1 0x40 PUSH1 0x20 DUP3 ADD MSTORE PUSH0 DUP3 MLOAD DUP1 PUSH1 0x40 DUP5 ADD MSTORE DUP1 PUSH1 0x20 DUP6 ADD PUSH1 0x60 DUP6 ADD MCOPY PUSH0 PUSH1 0x60 DUP3 DUP6 ADD ADD MSTORE PUSH1 0x60 PUSH1 0x1F NOT PUSH1 0x1F DUP4 ADD AND DUP5 ADD ADD SWAP2 POP POP SWAP4 SWAP3 POP POP POP JUMP JUMPDEST PUSH1 0x1 DUP2 DUP2 SHR SWAP1 DUP3 AND DUP1 PUSH2 0x3CC JUMPI PUSH1 0x7F DUP3 AND SWAP2 POP JUMPDEST PUSH1 0x20 DUP3 LT DUP2 SUB PUSH2 0x3EA JUMPI PUSH4 0x4E487B71 PUSH1 0xE0 SHL PUSH0 MSTORE PUSH1 0x22 PUSH1 0x4 MSTORE PUSH1 0x24 PUSH0 REVERT JUMPDEST POP SWAP2 SWAP1 POP JUMP JUMPDEST PUSH1 0x1F DUP3 GT ISZERO PUSH2 0x437 JUMPI DUP1 PUSH0 MSTORE PUSH1 0x20 PUSH0 KECCAK256 PUSH1 0x1F DUP5 ADD PUSH1 0x5 SHR DUP2 ADD PUSH1 0x20 DUP6 LT ISZERO PUSH2 0x415 JUMPI POP DUP1 JUMPDEST PUSH1 0x1F DUP5 ADD PUSH1 0x5 SHR DUP3 ADD SWAP2 POP JUMPDEST DUP2 DUP2 LT ISZERO PUSH2 0x434 JUMPI PUSH0 DUP2 SSTORE PUSH1 0x1 ADD PUSH2 0x421 JUMP JUMPDEST POP POP JUMPDEST POP POP POP JUMP JUMPDEST DUP2 MLOAD PUSH8 0xFFFFFFFFFFFFFFFF DUP2 GT ISZERO PUSH2 0x456 JUMPI PUSH2 0x456 PUSH2 0x261 JUMP JUMPDEST PUSH2 0x46A DUP2 PUSH2 0x464 DUP5 SLOAD PUSH2 0x3B8 JUMP JUMPDEST DUP5 PUSH2 0x3F0 JUMP JUMPDEST PUSH1 0x20 PUSH1 0x1F DUP3 GT PUSH1 0x1 DUP2 EQ PUSH2 0x49C JUMPI PUSH0 DUP4 ISZERO PUSH2 0x485 JUMPI POP DUP5 DUP3 ADD MLOAD JUMPDEST PUSH0 NOT PUSH1 0x3 DUP6 SWAP1 SHL SHR NOT AND PUSH1 0x1 DUP5 SWAP1 SHL OR DUP5 SSTORE PUSH2 0x434 JUMP JUMPDEST PUSH0 DUP5 DUP2 MSTORE PUSH1 0x20 DUP2 KECCAK256 PUSH1 0x1F NOT DUP6 AND SWAP2 JUMPDEST DUP3 DUP2 LT ISZERO PUSH2 0x4CB JUMPI DUP8 DUP6 ADD MLOAD DUP3 SSTORE PUSH1 0x20 SWAP5 DUP6 ADD SWAP5 PUSH1 0x1 SWAP1 SWAP3 ADD SWAP2 ADD PUSH2 0x4AB JUMP JUMPDEST POP DUP5 DUP3 LT ISZERO PUSH2 0x4E8 JUMPI DUP7 DUP5 ADD MLOAD PUSH0 NOT PUSH1 0x3 DUP8 SWAP1 SHL PUSH1 0xF8 AND SHR NOT AND DUP2 SSTORE JUMPDEST POP POP POP POP PUSH1 0x1 SWAP1 DUP2 SHL ADD SWAP1 SSTORE POP JUMP JUMPDEST DUP1 DUP3 ADD DUP1 DUP3 GT ISZERO PUSH2 0x516 JUMPI PUSH4 0x4E487B71 PUSH1 0xE0 SHL PUSH0 MSTORE PUSH1 0x11 PUSH1 0x4 MSTORE PUSH1 0x24 PUSH0 REVERT JUMPDEST SWAP3 SWAP2 POP POP JUMP JUMPDEST PUSH0 DUP3 MLOAD DUP1 PUSH1 0x20 DUP6 ADD DUP5 MCOPY PUSH0 SWAP3 ADD SWAP2 DUP3 MSTORE POP SWAP2 SWAP1 POP JUMP INVALID LOG2 PUSH5 0x6970667358 0x22 SLT KECCAK256 PC 0xEF BLOBHASH PC SWAP2 COINBASE PUSH20 0x2D9EF4A36176717C77E95895BEBC35A2DB1D5E17 PUSH15 0xFEBACEB664736F6C634300081A0033 "
				},
				"gasEstimates": {
					"creation": {
						"codeDepositCost": "276800",
						"executionCost": "316",
						"totalCost": "277116"
					},
					"external": {
						"addPerson(string,uint256)": "infinite",
						"nameToFavoriteNumber(string)": "infinite",
						"people(uint256)": "infinite",
						"retrieve()": "2246",
						"store(uint256)": "22309"
					}
				},
				"methodIdentifiers": {
					"addPerson(string,uint256)": "6f760f41",
					"nameToFavoriteNumber(string)": "8bab8dd5",
					"people(uint256)": "9e7a13ad",
					"retrieve()": "2e64cec1",
					"store(uint256)": "6057361d"
				}
			},
			"storageLayout": {
				"storage": [
					{
						"astId": 3,
						"contract": "contracts/SimpleStorage.sol:SimpleStorage",
						"label": "favoriteNumber",
						"offset": 0,
						"slot": "0",
						"type": "t_uint256"
					},
					{
						"astId": 12,
						"contract": "contracts/SimpleStorage.sol:SimpleStorage",
						"label": "people",
						"offset": 0,
						"slot": "1",
						"type": "t_array(t_struct(People)8_storage)dyn_storage"
					},
					{
						"astId": 16,
						"contract": "contracts/SimpleStorage.sol:SimpleStorage",
						"label": "nameToFavoriteNumber",
						"offset": 0,
						"slot": "2",
						"type": "t_mapping(t_string_memory_ptr,t_uint256)"
					}
				],
				"types": {
					"t_array(t_struct(People)8_storage)dyn_storage": {
						"base": "t_struct(People)8_storage",
						"encoding": "dynamic_array",
						"label": "struct SimpleStorage.People[]",
						"numberOfBytes": "32"
					},
					"t_mapping(t_string_memory_ptr,t_uint256)": {
						"encoding": "mapping",
						"key": "t_string_memory_ptr",
						"label": "mapping(string => uint256)",
						"numberOfBytes": "32",
						"value": "t_uint256"
					},
					"t_string_memory_ptr": {
						"encoding": "bytes",
						"label": "string",
						"numberOfBytes": "32"
					},
					"t_string_storage": {
						"encoding": "bytes",
						"label": "string",
						"numberOfBytes": "32"
					},
					"t_struct(People)8_storage": {
						"encoding": "inplace",
						"label": "struct SimpleStorage.People",
						"members": [
							{
								"astId": 5,
								"contract": "contracts/SimpleStorage.sol:SimpleStorage",
								"label": "favoriteNumber",
								"offset": 0,
								"slot": "0",
								"type": "t_uint256"
							},
							{
								"astId": 7,
								"contract": "contracts/SimpleStorage.sol:SimpleStorage",
								"label": "name",
								"offset": 0,
								"slot": "1",
								"type": "t_string_storage"
							}
						],
						"numberOfBytes": "64"
					},
					"t_uint256": {
						"encoding": "inplace",
						"label": "uint256",
						"numberOfBytes": "32"
					}
				}
			},
			"userdoc": {
				"kind": "user",
				"methods": {},
				"version": 1
			}
		}
	}
}