{
	"contracts/FundMe.sol": {
		"FundMe": {
			"abi": [
				{
					"inputs": [],
					"stateMutability": "nonpayable",
					"type": "constructor"
				},
				{
					"inputs": [],
					"name": "NotOwner",
					"type": "error"
				},
				{
					"stateMutability": "payable",
					"type": "fallback"
				},
				{
					"inputs": [],
					"name": "MINIMUM_USD",
					"outputs": [
						{
							"internalType": "uint256",
							"name": "",
							"type": "uint256"
						}
					],
					"stateMutability": "view",
					"type": "function"
				},
				{
					"inputs": [
						{
							"internalType": "address",
							"name": "",
							"type": "address"
						}
					],
					"name": "addressToAmountFunded",
					"outputs": [
						{
							"internalType": "uint256",
							"name": "",
							"type": "uint256"
						}
					],
					"stateMutability": "view",
					"type": "function"
				},
				{
					"inputs": [],
					"name": "fund",
					"outputs": [],
					"stateMutability": "payable",
					"type": "function"
				},
				{
					"inputs": [
						{
							"internalType": "uint256",
							"name": "",
							"type": "uint256"
						}
					],
					"name": "funders",
					"outputs": [
						{
							"internalType": "address",
							"name": "",
							"type": "address"
						}
					],
					"stateMutability": "view",
					"type": "function"
				},
				{
					"inputs": [],
					"name": "getVersion",
					"outputs": [
						{
							"internalType": "uint256",
							"name": "",
							"type": "uint256"
						}
					],
					"stateMutability": "view",
					"type": "function"
				},
				{
					"inputs": [],
					"name": "i_owner",
					"outputs": [
						{
							"internalType": "address",
							"name": "",
							"type": "address"
						}
					],
					"stateMutability": "view",
					"type": "function"
				},
				{
					"inputs": [],
					"name": "withdraw",
					"outputs": [],
					"stateMutability": "nonpayable",
					"type": "function"
				},
				{
					"stateMutability": "payable",
					"type": "receive"
				}
			],
			"devdoc": {
				"kind": "dev",
				"methods": {},
				"version": 1
			},
			"evm": {
				"assembly": "    /* \"contracts/FundMe.sol\":193:2502  contract FundMe {... */\n  mstore(0x40, 0x80)\n    /* \"contracts/FundMe.sol\":545:598  constructor() {... */\n  callvalue\n  dup1\n  iszero\n  tag_1\n  jumpi\n  0x00\n  dup1\n  revert\ntag_1:\n  pop\n    /* \"contracts/FundMe.sol\":570:577  i_owner */\n  0x02\n    /* \"contracts/FundMe.sol\":570:590  i_owner = msg.sender */\n  dup1\n  sload\n  not(sub(shl(0xa0, 0x01), 0x01))\n  and\n    /* \"contracts/FundMe.sol\":580:590  msg.sender */\n  caller\n    /* \"contracts/FundMe.sol\":570:590  i_owner = msg.sender */\n  or\n  swap1\n  sstore\n    /* \"contracts/FundMe.sol\":193:2502  contract FundMe {... */\n  dataSize(sub_0)\n  dup1\n  dataOffset(sub_0)\n  0x00\n  codecopy\n  0x00\n  return\nstop\n\nsub_0: assembly {\n        /* \"contracts/FundMe.sol\":193:2502  contract FundMe {... */\n      mstore(0x40, 0x80)\n      jumpi(tag_1, lt(calldatasize, 0x04))\n      shr(0xe0, calldataload(0x00))\n      dup1\n      0x6b69a592\n      gt\n      tag_10\n      jumpi\n      dup1\n      0x6b69a592\n      eq\n      tag_6\n      jumpi\n      dup1\n      0xb60d4288\n      eq\n      tag_2\n      jumpi\n      dup1\n      0xdba6335f\n      eq\n      tag_8\n      jumpi\n      dup1\n      0xdc0d3dff\n      eq\n      tag_9\n      jumpi\n      jump(tag_2)\n    tag_10:\n      dup1\n      0x0d8e6e2c\n      eq\n      tag_3\n      jumpi\n      dup1\n      0x3ccfd60b\n      eq\n      tag_4\n      jumpi\n      dup1\n      0x3e47d6f3\n      eq\n      tag_5\n      jumpi\n      jump(tag_2)\n    tag_1:\n      jumpi(tag_2, calldatasize)\n        /* \"contracts/FundMe.sol\":2483:2489  fund() */\n      tag_13\n        /* \"contracts/FundMe.sol\":2483:2487  fund */\n      tag_14\n        /* \"contracts/FundMe.sol\":2483:2489  fund() */\n      jump\t// in\n    tag_13:\n        /* \"contracts/FundMe.sol\":193:2502  contract FundMe {... */\n      stop\n    tag_2:\n        /* \"contracts/FundMe.sol\":2423:2429  fund() */\n      tag_13\n        /* \"contracts/FundMe.sol\":2423:2427  fund */\n      tag_14\n        /* \"contracts/FundMe.sol\":2423:2429  fund() */\n      jump\t// in\n        /* \"contracts/FundMe.sol\":956:1221  function getVersion() public view returns (uint256){... */\n    tag_3:\n      callvalue\n      dup1\n      iszero\n      tag_18\n      jumpi\n      0x00\n      dup1\n      revert\n    tag_18:\n      pop\n      tag_19\n      tag_20\n      jump\t// in\n    tag_19:\n      mload(0x40)\n        /* \"#utility.yul\":160:185   */\n      swap1\n      dup2\n      mstore\n        /* \"#utility.yul\":148:150   */\n      0x20\n        /* \"#utility.yul\":133:151   */\n      add\n        /* \"contracts/FundMe.sol\":956:1221  function getVersion() public view returns (uint256){... */\n    tag_21:\n      mload(0x40)\n      dup1\n      swap2\n      sub\n      swap1\n      return\n        /* \"contracts/FundMe.sol\":1381:2050  function withdraw() public onlyOwner {... */\n    tag_4:\n      callvalue\n      dup1\n      iszero\n      tag_23\n      jumpi\n      0x00\n      dup1\n      revert\n    tag_23:\n      pop\n      tag_13\n      tag_25\n      jump\t// in\n        /* \"contracts/FundMe.sol\":257:313  mapping(address => uint256) public addressToAmountFunded */\n    tag_5:\n      callvalue\n      dup1\n      iszero\n      tag_26\n      jumpi\n      0x00\n      dup1\n      revert\n    tag_26:\n      pop\n      tag_19\n      tag_28\n      calldatasize\n      0x04\n      tag_29\n      jump\t// in\n    tag_28:\n      0x00\n      0x20\n      dup2\n      swap1\n      mstore\n      swap1\n      dup2\n      mstore\n      0x40\n      swap1\n      keccak256\n      sload\n      dup2\n      jump\n        /* \"contracts/FundMe.sol\":481:532  uint256 public constant MINIMUM_USD = 50 * 10 ** 18 */\n    tag_6:\n      callvalue\n      dup1\n      iszero\n      tag_32\n      jumpi\n      0x00\n      dup1\n      revert\n    tag_32:\n      pop\n      tag_19\n        /* \"contracts/FundMe.sol\":519:532  50 * 10 ** 18 */\n      0x02b5e3af16b1880000\n        /* \"contracts/FundMe.sol\":481:532  uint256 public constant MINIMUM_USD = 50 * 10 ** 18 */\n      dup2\n      jump\n        /* \"contracts/FundMe.sol\":436:474  address public /* immutable */ i_owner */\n    tag_8:\n      callvalue\n      dup1\n      iszero\n      tag_37\n      jumpi\n      0x00\n      dup1\n      revert\n    tag_37:\n      pop\n      sload(0x02)\n      tag_38\n      swap1\n      sub(shl(0xa0, 0x01), 0x01)\n      and\n      dup2\n      jump\n    tag_38:\n      mload(0x40)\n      sub(shl(0xa0, 0x01), 0x01)\n        /* \"#utility.yul\":651:683   */\n      swap1\n      swap2\n      and\n        /* \"#utility.yul\":633:684   */\n      dup2\n      mstore\n        /* \"#utility.yul\":621:623   */\n      0x20\n        /* \"#utility.yul\":606:624   */\n      add\n        /* \"contracts/FundMe.sol\":436:474  address public /* immutable */ i_owner */\n      tag_21\n        /* \"#utility.yul\":487:690   */\n      jump\n        /* \"contracts/FundMe.sol\":320:344  address[] public funders */\n    tag_9:\n      callvalue\n      dup1\n      iszero\n      tag_42\n      jumpi\n      0x00\n      dup1\n      revert\n    tag_42:\n      pop\n      tag_38\n      tag_44\n      calldatasize\n      0x04\n      tag_45\n      jump\t// in\n    tag_44:\n      tag_46\n      jump\t// in\n        /* \"contracts/FundMe.sol\":606:944  function fund() public payable {... */\n    tag_14:\n        /* \"contracts/FundMe.sol\":519:532  50 * 10 ** 18 */\n      0x02b5e3af16b1880000\n        /* \"contracts/FundMe.sol\":656:685  msg.value.getConversionRate() */\n      tag_49\n        /* \"contracts/FundMe.sol\":656:665  msg.value */\n      callvalue\n        /* \"contracts/FundMe.sol\":656:683  msg.value.getConversionRate */\n      tag_50\n        /* \"contracts/FundMe.sol\":656:685  msg.value.getConversionRate() */\n      jump\t// in\n    tag_49:\n        /* \"contracts/FundMe.sol\":656:700  msg.value.getConversionRate() >= MINIMUM_USD */\n      lt\n      iszero\n        /* \"contracts/FundMe.sol\":648:732  require(msg.value.getConversionRate() >= MINIMUM_USD, \"You need to spend more ETH!\") */\n      tag_51\n      jumpi\n      mload(0x40)\n      shl(0xe5, 0x461bcd)\n      dup2\n      mstore\n        /* \"#utility.yul\":1082:1084   */\n      0x20\n        /* \"contracts/FundMe.sol\":648:732  require(msg.value.getConversionRate() >= MINIMUM_USD, \"You need to spend more ETH!\") */\n      0x04\n      dup3\n      add\n        /* \"#utility.yul\":1064:1085   */\n      mstore\n        /* \"#utility.yul\":1121:1123   */\n      0x1b\n        /* \"#utility.yul\":1101:1119   */\n      0x24\n      dup3\n      add\n        /* \"#utility.yul\":1094:1124   */\n      mstore\n        /* \"#utility.yul\":1160:1189   */\n      0x596f75206e65656420746f207370656e64206d6f726520455448210000000000\n        /* \"#utility.yul\":1140:1158   */\n      0x44\n      dup3\n      add\n        /* \"#utility.yul\":1133:1190   */\n      mstore\n        /* \"#utility.yul\":1207:1225   */\n      0x64\n      add\n        /* \"contracts/FundMe.sol\":648:732  require(msg.value.getConversionRate() >= MINIMUM_USD, \"You need to spend more ETH!\") */\n    tag_52:\n      mload(0x40)\n      dup1\n      swap2\n      sub\n      swap1\n      revert\n    tag_51:\n        /* \"contracts/FundMe.sol\":877:887  msg.sender */\n      caller\n        /* \"contracts/FundMe.sol\":855:876  addressToAmountFunded */\n      0x00\n        /* \"contracts/FundMe.sol\":855:888  addressToAmountFunded[msg.sender] */\n      swap1\n      dup2\n      mstore\n      0x20\n      dup2\n      swap1\n      mstore\n      0x40\n      dup2\n      keccak256\n        /* \"contracts/FundMe.sol\":855:901  addressToAmountFunded[msg.sender] += msg.value */\n      dup1\n      sload\n        /* \"contracts/FundMe.sol\":892:901  msg.value */\n      callvalue\n      swap3\n        /* \"contracts/FundMe.sol\":855:876  addressToAmountFunded */\n      swap1\n        /* \"contracts/FundMe.sol\":855:901  addressToAmountFunded[msg.sender] += msg.value */\n      tag_54\n      swap1\n        /* \"contracts/FundMe.sol\":892:901  msg.value */\n      dup5\n      swap1\n        /* \"contracts/FundMe.sol\":855:901  addressToAmountFunded[msg.sender] += msg.value */\n      tag_55\n      jump\t// in\n    tag_54:\n      swap1\n      swap2\n      sstore\n      pop\n      pop\n        /* \"contracts/FundMe.sol\":912:919  funders */\n      0x01\n        /* \"contracts/FundMe.sol\":912:936  funders.push(msg.sender) */\n      dup1\n      sload\n      dup1\n      dup3\n      add\n      dup3\n      sstore\n      0x00\n      swap2\n      swap1\n      swap2\n      mstore\n      0xb10e2d527612073b26eecdfd717e6a320cf44b4afac2b0732d9fcbe2b7fa0cf6\n      add\n      dup1\n      sload\n      not(sub(shl(0xa0, 0x01), 0x01))\n      and\n        /* \"contracts/FundMe.sol\":925:935  msg.sender */\n      caller\n        /* \"contracts/FundMe.sol\":912:936  funders.push(msg.sender) */\n      or\n      swap1\n      sstore\n        /* \"contracts/FundMe.sol\":606:944  function fund() public payable {... */\n      jump\t// out\n        /* \"contracts/FundMe.sol\":956:1221  function getVersion() public view returns (uint256){... */\n    tag_20:\n        /* \"contracts/FundMe.sol\":999:1006  uint256 */\n      0x00\n        /* \"contracts/FundMe.sol\":1077:1108  AggregatorV3Interface priceFeed */\n      dup1\n        /* \"contracts/FundMe.sol\":1133:1175  0x694AA1769357215DE4FAC081bf1f309aDC325306 */\n      0x694aa1769357215de4fac081bf1f309adc325306\n        /* \"contracts/FundMe.sol\":1077:1176  AggregatorV3Interface priceFeed = AggregatorV3Interface(0x694AA1769357215DE4FAC081bf1f309aDC325306) */\n      swap1\n      pop\n        /* \"contracts/FundMe.sol\":1194:1203  priceFeed */\n      dup1\n      sub(shl(0xa0, 0x01), 0x01)\n        /* \"contracts/FundMe.sol\":1194:1211  priceFeed.version */\n      and\n      0x54fd4d50\n        /* \"contracts/FundMe.sol\":1194:1213  priceFeed.version() */\n      mload(0x40)\n      dup2\n      0xffffffff\n      and\n      0xe0\n      shl\n      dup2\n      mstore\n      0x04\n      add\n      0x20\n      mload(0x40)\n      dup1\n      dup4\n      sub\n      dup2\n      dup7\n      gas\n      staticcall\n      iszero\n      dup1\n      iszero\n      tag_59\n      jumpi\n      returndatasize\n      0x00\n      dup1\n      returndatacopy\n      revert(0x00, returndatasize)\n    tag_59:\n      pop\n      pop\n      pop\n      pop\n      mload(0x40)\n      returndatasize\n      not(0x1f)\n      0x1f\n      dup3\n      add\n      and\n      dup3\n      add\n      dup1\n      0x40\n      mstore\n      pop\n      dup2\n      add\n      swap1\n      tag_60\n      swap2\n      swap1\n      tag_61\n      jump\t// in\n    tag_60:\n        /* \"contracts/FundMe.sol\":1187:1213  return priceFeed.version() */\n      swap2\n      pop\n      pop\n        /* \"contracts/FundMe.sol\":956:1221  function getVersion() public view returns (uint256){... */\n      swap1\n      jump\t// out\n        /* \"contracts/FundMe.sol\":1381:2050  function withdraw() public onlyOwner {... */\n    tag_25:\n        /* \"contracts/FundMe.sol\":1323:1330  i_owner */\n      and(sub(shl(0xa0, 0x01), 0x01), sload(0x02))\n        /* \"contracts/FundMe.sol\":1309:1319  msg.sender */\n      caller\n        /* \"contracts/FundMe.sol\":1309:1330  msg.sender != i_owner */\n      eq\n        /* \"contracts/FundMe.sol\":1305:1349  if (msg.sender != i_owner) revert NotOwner() */\n      tag_63\n      jumpi\n        /* \"contracts/FundMe.sol\":1339:1349  NotOwner() */\n      mload(0x40)\n      shl(0xe0, 0x30cd7471)\n      dup2\n      mstore\n      0x04\n      add\n      mload(0x40)\n      dup1\n      swap2\n      sub\n      swap1\n      revert\n        /* \"contracts/FundMe.sol\":1305:1349  if (msg.sender != i_owner) revert NotOwner() */\n    tag_63:\n        /* \"contracts/FundMe.sol\":1434:1453  uint256 funderIndex */\n      0x00\n        /* \"contracts/FundMe.sol\":1429:1613  for (uint256 funderIndex=0; funderIndex < funders.length; funderIndex++){... */\n    tag_65:\n        /* \"contracts/FundMe.sol\":1471:1478  funders */\n      0x01\n        /* \"contracts/FundMe.sol\":1471:1485  funders.length */\n      sload\n        /* \"contracts/FundMe.sol\":1457:1485  funderIndex < funders.length */\n      dup2\n      lt\n        /* \"contracts/FundMe.sol\":1429:1613  for (uint256 funderIndex=0; funderIndex < funders.length; funderIndex++){... */\n      iszero\n      tag_66\n      jumpi\n        /* \"contracts/FundMe.sol\":1516:1530  address funder */\n      0x00\n        /* \"contracts/FundMe.sol\":1533:1540  funders */\n      0x01\n        /* \"contracts/FundMe.sol\":1541:1552  funderIndex */\n      dup3\n        /* \"contracts/FundMe.sol\":1533:1553  funders[funderIndex] */\n      dup2\n      sload\n      dup2\n      lt\n      tag_69\n      jumpi\n      tag_69\n      tag_70\n      jump\t// in\n    tag_69:\n      0x00\n      swap2\n      dup3\n      mstore\n      0x20\n      dup1\n      dup4\n      keccak256\n      swap1\n      swap2\n      add\n      sload\n      sub(shl(0xa0, 0x01), 0x01)\n      and\n        /* \"contracts/FundMe.sol\":1568:1597  addressToAmountFunded[funder] */\n      dup3\n      mstore\n      dup2\n      swap1\n      mstore\n      0x40\n      dup2\n      keccak256\n        /* \"contracts/FundMe.sol\":1568:1601  addressToAmountFunded[funder] = 0 */\n      sstore\n      pop\n        /* \"contracts/FundMe.sol\":1533:1553  funders[funderIndex] */\n      0x01\n        /* \"contracts/FundMe.sol\":1487:1500  funderIndex++ */\n      add\n        /* \"contracts/FundMe.sol\":1429:1613  for (uint256 funderIndex=0; funderIndex < funders.length; funderIndex++){... */\n      jump(tag_65)\n    tag_66:\n      pop\n        /* \"contracts/FundMe.sol\":1633:1649  new address[](0) */\n      0x40\n      dup1\n      mload\n        /* \"contracts/FundMe.sol\":1647:1648  0 */\n      0x00\n        /* \"contracts/FundMe.sol\":1633:1649  new address[](0) */\n      dup2\n      mstore\n      0x20\n      dup2\n      add\n      swap2\n      dup3\n      swap1\n      mstore\n        /* \"contracts/FundMe.sol\":1623:1649  funders = new address[](0) */\n      mload\n      tag_76\n      swap2\n        /* \"contracts/FundMe.sol\":1623:1630  funders */\n      0x01\n      swap2\n        /* \"contracts/FundMe.sol\":1623:1649  funders = new address[](0) */\n      tag_77\n      jump\t// in\n    tag_76:\n      pop\n        /* \"contracts/FundMe.sol\":1938:1996  payable(msg.sender).call{value: address(this).balance}(\"\") */\n      mload(0x40)\n        /* \"contracts/FundMe.sol\":1916:1932  bool callSuccess */\n      0x00\n      swap1\n        /* \"contracts/FundMe.sol\":1946:1956  msg.sender */\n      caller\n      swap1\n        /* \"contracts/FundMe.sol\":1970:1991  address(this).balance */\n      selfbalance\n      swap1\n        /* \"contracts/FundMe.sol\":1916:1932  bool callSuccess */\n      dup4\n        /* \"contracts/FundMe.sol\":1938:1996  payable(msg.sender).call{value: address(this).balance}(\"\") */\n      dup2\n        /* \"contracts/FundMe.sol\":1916:1932  bool callSuccess */\n      dup2\n        /* \"contracts/FundMe.sol\":1938:1996  payable(msg.sender).call{value: address(this).balance}(\"\") */\n      dup2\n        /* \"contracts/FundMe.sol\":1970:1991  address(this).balance */\n      dup6\n        /* \"contracts/FundMe.sol\":1946:1956  msg.sender */\n      dup8\n        /* \"contracts/FundMe.sol\":1938:1996  payable(msg.sender).call{value: address(this).balance}(\"\") */\n      gas\n      call\n      swap3\n      pop\n      pop\n      pop\n      returndatasize\n      dup1\n      0x00\n      dup2\n      eq\n      tag_82\n      jumpi\n      mload(0x40)\n      swap2\n      pop\n      and(add(returndatasize, 0x3f), not(0x1f))\n      dup3\n      add\n      0x40\n      mstore\n      returndatasize\n      dup3\n      mstore\n      returndatasize\n      0x00\n      0x20\n      dup5\n      add\n      returndatacopy\n      jump(tag_81)\n    tag_82:\n      0x60\n      swap2\n      pop\n    tag_81:\n      pop\n        /* \"contracts/FundMe.sol\":1915:1996  (bool callSuccess, ) = payable(msg.sender).call{value: address(this).balance}(\"\") */\n      pop\n      swap1\n      pop\n        /* \"contracts/FundMe.sol\":2015:2026  callSuccess */\n      dup1\n        /* \"contracts/FundMe.sol\":2007:2042  require(callSuccess, \"Call failed\") */\n      tag_83\n      jumpi\n      mload(0x40)\n      shl(0xe5, 0x461bcd)\n      dup2\n      mstore\n        /* \"#utility.yul\":2409:2411   */\n      0x20\n        /* \"contracts/FundMe.sol\":2007:2042  require(callSuccess, \"Call failed\") */\n      0x04\n      dup3\n      add\n        /* \"#utility.yul\":2391:2412   */\n      mstore\n        /* \"#utility.yul\":2448:2450   */\n      0x0b\n        /* \"#utility.yul\":2428:2446   */\n      0x24\n      dup3\n      add\n        /* \"#utility.yul\":2421:2451   */\n      mstore\n      shl(0xaa, 0x10d85b1b0819985a5b1959)\n        /* \"#utility.yul\":2467:2485   */\n      0x44\n      dup3\n      add\n        /* \"#utility.yul\":2460:2501   */\n      mstore\n        /* \"#utility.yul\":2518:2536   */\n      0x64\n      add\n        /* \"contracts/FundMe.sol\":2007:2042  require(callSuccess, \"Call failed\") */\n      tag_52\n        /* \"#utility.yul\":2207:2542   */\n      jump\n        /* \"contracts/FundMe.sol\":2007:2042  require(callSuccess, \"Call failed\") */\n    tag_83:\n        /* \"contracts/FundMe.sol\":1418:2050  {... */\n      pop\n        /* \"contracts/FundMe.sol\":1381:2050  function withdraw() public onlyOwner {... */\n      jump\t// out\n        /* \"contracts/FundMe.sol\":320:344  address[] public funders */\n    tag_46:\n      0x01\n      dup2\n      dup2\n      sload\n      dup2\n      lt\n      tag_86\n      jumpi\n      0x00\n      dup1\n      revert\n    tag_86:\n      0x00\n      swap2\n      dup3\n      mstore\n      0x20\n      swap1\n      swap2\n      keccak256\n      add\n      sload\n      sub(shl(0xa0, 0x01), 0x01)\n      and\n      swap1\n      pop\n      dup2\n      jump\t// out\n        /* \"contracts/PriceConverter.sol\":919:1419  function getConversionRate(uint256 ethAmount)... */\n    tag_50:\n        /* \"contracts/PriceConverter.sol\":1015:1022  uint256 */\n      0x00\n        /* \"contracts/PriceConverter.sol\":1040:1056  uint256 ethPrice */\n      dup1\n        /* \"contracts/PriceConverter.sol\":1059:1069  getPrice() */\n      tag_89\n        /* \"contracts/PriceConverter.sol\":1059:1067  getPrice */\n      tag_90\n        /* \"contracts/PriceConverter.sol\":1059:1069  getPrice() */\n      jump\t// in\n    tag_89:\n        /* \"contracts/PriceConverter.sol\":1040:1069  uint256 ethPrice = getPrice() */\n      swap1\n      pop\n        /* \"contracts/PriceConverter.sol\":1080:1102  uint256 ethAmountInUsd */\n      0x00\n        /* \"contracts/PriceConverter.sol\":1130:1149  1000000000000000000 */\n      0x0de0b6b3a7640000\n        /* \"contracts/PriceConverter.sol\":1106:1126  ethPrice * ethAmount */\n      tag_91\n        /* \"contracts/PriceConverter.sol\":1117:1126  ethAmount */\n      dup6\n        /* \"contracts/PriceConverter.sol\":1040:1069  uint256 ethPrice = getPrice() */\n      dup5\n        /* \"contracts/PriceConverter.sol\":1106:1126  ethPrice * ethAmount */\n      tag_92\n      jump\t// in\n    tag_91:\n        /* \"contracts/PriceConverter.sol\":1105:1149  (ethPrice * ethAmount) / 1000000000000000000 */\n      tag_93\n      swap2\n      swap1\n      tag_94\n      jump\t// in\n    tag_93:\n        /* \"contracts/PriceConverter.sol\":1080:1149  uint256 ethAmountInUsd = (ethPrice * ethAmount) / 1000000000000000000 */\n      swap5\n        /* \"contracts/PriceConverter.sol\":919:1419  function getConversionRate(uint256 ethAmount)... */\n      swap4\n      pop\n      pop\n      pop\n      pop\n      jump\t// out\n        /* \"contracts/PriceConverter.sol\":307:892  function getPrice() internal view returns (uint256) {... */\n    tag_90:\n        /* \"contracts/PriceConverter.sol\":350:357  uint256 */\n      0x00\n        /* \"contracts/PriceConverter.sol\":495:526  AggregatorV3Interface priceFeed */\n      dup1\n        /* \"contracts/PriceConverter.sol\":565:607  0x694AA1769357215DE4FAC081bf1f309aDC325306 */\n      0x694aa1769357215de4fac081bf1f309adc325306\n        /* \"contracts/PriceConverter.sol\":495:618  AggregatorV3Interface priceFeed = AggregatorV3Interface(... */\n      swap1\n      pop\n        /* \"contracts/PriceConverter.sol\":632:645  int256 answer */\n      0x00\n        /* \"contracts/PriceConverter.sol\":655:664  priceFeed */\n      dup2\n      sub(shl(0xa0, 0x01), 0x01)\n        /* \"contracts/PriceConverter.sol\":655:680  priceFeed.latestRoundData */\n      and\n      0xfeaf968c\n        /* \"contracts/PriceConverter.sol\":655:682  priceFeed.latestRoundData() */\n      mload(0x40)\n      dup2\n      0xffffffff\n      and\n      0xe0\n      shl\n      dup2\n      mstore\n      0x04\n      add\n      0xa0\n      mload(0x40)\n      dup1\n      dup4\n      sub\n      dup2\n      dup7\n      gas\n      staticcall\n      iszero\n      dup1\n      iszero\n      tag_97\n      jumpi\n      returndatasize\n      0x00\n      dup1\n      returndatacopy\n      revert(0x00, returndatasize)\n    tag_97:\n      pop\n      pop\n      pop\n      pop\n      mload(0x40)\n      returndatasize\n      not(0x1f)\n      0x1f\n      dup3\n      add\n      and\n      dup3\n      add\n      dup1\n      0x40\n      mstore\n      pop\n      dup2\n      add\n      swap1\n      tag_98\n      swap2\n      swap1\n      tag_99\n      jump\t// in\n    tag_98:\n        /* \"contracts/PriceConverter.sol\":629:682  (, int256 answer, , , ) = priceFeed.latestRoundData() */\n      pop\n      pop\n      pop\n      swap2\n      pop\n      pop\n        /* \"contracts/PriceConverter.sol\":745:751  answer */\n      dup1\n        /* \"contracts/PriceConverter.sol\":754:765  10000000000 */\n      0x02540be400\n        /* \"contracts/PriceConverter.sol\":745:765  answer * 10000000000 */\n      tag_100\n      swap2\n      swap1\n      tag_101\n      jump\t// in\n    tag_100:\n        /* \"contracts/PriceConverter.sol\":730:766  return uint256(answer * 10000000000) */\n      swap3\n      pop\n      pop\n      pop\n        /* \"contracts/PriceConverter.sol\":307:892  function getPrice() internal view returns (uint256) {... */\n      swap1\n      jump\t// out\n    tag_77:\n      dup3\n      dup1\n      sload\n      dup3\n      dup3\n      sstore\n      swap1\n      0x00\n      mstore\n      keccak256(0x00, 0x20)\n      swap1\n      dup2\n      add\n      swap3\n      dup3\n      iszero\n      tag_104\n      jumpi\n      swap2\n      0x20\n      mul\n      dup3\n      add\n    tag_103:\n      dup3\n      dup2\n      gt\n      iszero\n      tag_104\n      jumpi\n      dup3\n      mload\n      dup3\n      sload\n      not(sub(shl(0xa0, 0x01), 0x01))\n      and\n      sub(shl(0xa0, 0x01), 0x01)\n      swap1\n      swap2\n      and\n      or\n      dup3\n      sstore\n      0x20\n      swap1\n      swap3\n      add\n      swap2\n      0x01\n      swap1\n      swap2\n      add\n      swap1\n      jump(tag_103)\n    tag_104:\n      pop\n      tag_105\n      swap3\n      swap2\n      pop\n      tag_106\n      jump\t// in\n    tag_105:\n      pop\n      swap1\n      jump\t// out\n    tag_106:\n    tag_107:\n      dup1\n      dup3\n      gt\n      iszero\n      tag_105\n      jumpi\n      0x00\n      dup2\n      sstore\n      0x01\n      add\n      jump(tag_107)\n        /* \"#utility.yul\":196:482   */\n    tag_29:\n        /* \"#utility.yul\":255:261   */\n      0x00\n        /* \"#utility.yul\":308:310   */\n      0x20\n        /* \"#utility.yul\":296:305   */\n      dup3\n        /* \"#utility.yul\":287:294   */\n      dup5\n        /* \"#utility.yul\":283:306   */\n      sub\n        /* \"#utility.yul\":279:311   */\n      slt\n        /* \"#utility.yul\":276:328   */\n      iszero\n      tag_114\n      jumpi\n        /* \"#utility.yul\":324:325   */\n      0x00\n        /* \"#utility.yul\":321:322   */\n      dup1\n        /* \"#utility.yul\":314:326   */\n      revert\n        /* \"#utility.yul\":276:328   */\n    tag_114:\n        /* \"#utility.yul\":350:373   */\n      dup2\n      calldataload\n      sub(shl(0xa0, 0x01), 0x01)\n        /* \"#utility.yul\":402:433   */\n      dup2\n      and\n        /* \"#utility.yul\":392:434   */\n      dup2\n      eq\n        /* \"#utility.yul\":382:452   */\n      tag_115\n      jumpi\n        /* \"#utility.yul\":448:449   */\n      0x00\n        /* \"#utility.yul\":445:446   */\n      dup1\n        /* \"#utility.yul\":438:450   */\n      revert\n        /* \"#utility.yul\":382:452   */\n    tag_115:\n        /* \"#utility.yul\":471:476   */\n      swap4\n        /* \"#utility.yul\":196:482   */\n      swap3\n      pop\n      pop\n      pop\n      jump\t// out\n        /* \"#utility.yul\":695:875   */\n    tag_45:\n        /* \"#utility.yul\":754:760   */\n      0x00\n        /* \"#utility.yul\":807:809   */\n      0x20\n        /* \"#utility.yul\":795:804   */\n      dup3\n        /* \"#utility.yul\":786:793   */\n      dup5\n        /* \"#utility.yul\":782:805   */\n      sub\n        /* \"#utility.yul\":778:810   */\n      slt\n        /* \"#utility.yul\":775:827   */\n      iszero\n      tag_118\n      jumpi\n        /* \"#utility.yul\":823:824   */\n      0x00\n        /* \"#utility.yul\":820:821   */\n      dup1\n        /* \"#utility.yul\":813:825   */\n      revert\n        /* \"#utility.yul\":775:827   */\n    tag_118:\n      pop\n        /* \"#utility.yul\":846:869   */\n      calldataload\n      swap2\n        /* \"#utility.yul\":695:875   */\n      swap1\n      pop\n      jump\t// out\n        /* \"#utility.yul\":1236:1363   */\n    tag_109:\n        /* \"#utility.yul\":1297:1307   */\n      0x4e487b71\n        /* \"#utility.yul\":1292:1295   */\n      0xe0\n        /* \"#utility.yul\":1288:1308   */\n      shl\n        /* \"#utility.yul\":1285:1286   */\n      0x00\n        /* \"#utility.yul\":1278:1309   */\n      mstore\n        /* \"#utility.yul\":1328:1332   */\n      0x11\n        /* \"#utility.yul\":1325:1326   */\n      0x04\n        /* \"#utility.yul\":1318:1333   */\n      mstore\n        /* \"#utility.yul\":1352:1356   */\n      0x24\n        /* \"#utility.yul\":1349:1350   */\n      0x00\n        /* \"#utility.yul\":1342:1357   */\n      revert\n        /* \"#utility.yul\":1368:1493   */\n    tag_55:\n        /* \"#utility.yul\":1433:1442   */\n      dup1\n      dup3\n      add\n        /* \"#utility.yul\":1454:1464   */\n      dup1\n      dup3\n      gt\n        /* \"#utility.yul\":1451:1487   */\n      iszero\n      tag_123\n      jumpi\n        /* \"#utility.yul\":1467:1485   */\n      tag_123\n      tag_109\n      jump\t// in\n    tag_123:\n        /* \"#utility.yul\":1368:1493   */\n      swap3\n      swap2\n      pop\n      pop\n      jump\t// out\n        /* \"#utility.yul\":1498:1728   */\n    tag_61:\n        /* \"#utility.yul\":1568:1574   */\n      0x00\n        /* \"#utility.yul\":1621:1623   */\n      0x20\n        /* \"#utility.yul\":1609:1618   */\n      dup3\n        /* \"#utility.yul\":1600:1607   */\n      dup5\n        /* \"#utility.yul\":1596:1619   */\n      sub\n        /* \"#utility.yul\":1592:1624   */\n      slt\n        /* \"#utility.yul\":1589:1641   */\n      iszero\n      tag_125\n      jumpi\n        /* \"#utility.yul\":1637:1638   */\n      0x00\n        /* \"#utility.yul\":1634:1635   */\n      dup1\n        /* \"#utility.yul\":1627:1639   */\n      revert\n        /* \"#utility.yul\":1589:1641   */\n    tag_125:\n      pop\n        /* \"#utility.yul\":1682:1698   */\n      mload\n      swap2\n        /* \"#utility.yul\":1498:1728   */\n      swap1\n      pop\n      jump\t// out\n        /* \"#utility.yul\":1733:1860   */\n    tag_70:\n        /* \"#utility.yul\":1794:1804   */\n      0x4e487b71\n        /* \"#utility.yul\":1789:1792   */\n      0xe0\n        /* \"#utility.yul\":1785:1805   */\n      shl\n        /* \"#utility.yul\":1782:1783   */\n      0x00\n        /* \"#utility.yul\":1775:1806   */\n      mstore\n        /* \"#utility.yul\":1825:1829   */\n      0x32\n        /* \"#utility.yul\":1822:1823   */\n      0x04\n        /* \"#utility.yul\":1815:1830   */\n      mstore\n        /* \"#utility.yul\":1849:1853   */\n      0x24\n        /* \"#utility.yul\":1846:1847   */\n      0x00\n        /* \"#utility.yul\":1839:1854   */\n      revert\n        /* \"#utility.yul\":2547:2715   */\n    tag_92:\n        /* \"#utility.yul\":2620:2629   */\n      dup1\n      dup3\n      mul\n        /* \"#utility.yul\":2651:2660   */\n      dup2\n      iszero\n        /* \"#utility.yul\":2668:2683   */\n      dup3\n      dup3\n      div\n        /* \"#utility.yul\":2662:2684   */\n      dup5\n      eq\n        /* \"#utility.yul\":2648:2685   */\n      or\n        /* \"#utility.yul\":2638:2709   */\n      tag_123\n      jumpi\n        /* \"#utility.yul\":2689:2707   */\n      tag_123\n      tag_109\n      jump\t// in\n        /* \"#utility.yul\":2720:2937   */\n    tag_94:\n        /* \"#utility.yul\":2760:2761   */\n      0x00\n        /* \"#utility.yul\":2786:2787   */\n      dup3\n        /* \"#utility.yul\":2776:2908   */\n      tag_134\n      jumpi\n        /* \"#utility.yul\":2830:2840   */\n      0x4e487b71\n        /* \"#utility.yul\":2825:2828   */\n      0xe0\n        /* \"#utility.yul\":2821:2841   */\n      shl\n        /* \"#utility.yul\":2818:2819   */\n      0x00\n        /* \"#utility.yul\":2811:2842   */\n      mstore\n        /* \"#utility.yul\":2865:2869   */\n      0x12\n        /* \"#utility.yul\":2862:2863   */\n      0x04\n        /* \"#utility.yul\":2855:2870   */\n      mstore\n        /* \"#utility.yul\":2893:2897   */\n      0x24\n        /* \"#utility.yul\":2890:2891   */\n      0x00\n        /* \"#utility.yul\":2883:2898   */\n      revert\n        /* \"#utility.yul\":2776:2908   */\n    tag_134:\n      pop\n        /* \"#utility.yul\":2922:2931   */\n      div\n      swap1\n        /* \"#utility.yul\":2720:2937   */\n      jump\t// out\n        /* \"#utility.yul\":2942:3121   */\n    tag_110:\n        /* \"#utility.yul\":3020:3033   */\n      dup1\n      mload\n        /* \"#utility.yul\":3073:3095   */\n      0xffffffffffffffffffff\n        /* \"#utility.yul\":3062:3096   */\n      dup2\n      and\n        /* \"#utility.yul\":3052:3097   */\n      dup2\n      eq\n        /* \"#utility.yul\":3042:3115   */\n      tag_136\n      jumpi\n        /* \"#utility.yul\":3111:3112   */\n      0x00\n        /* \"#utility.yul\":3108:3109   */\n      dup1\n        /* \"#utility.yul\":3101:3113   */\n      revert\n        /* \"#utility.yul\":3042:3115   */\n    tag_136:\n        /* \"#utility.yul\":2942:3121   */\n      swap2\n      swap1\n      pop\n      jump\t// out\n        /* \"#utility.yul\":3126:3697   */\n    tag_99:\n        /* \"#utility.yul\":3229:3235   */\n      0x00\n        /* \"#utility.yul\":3237:3243   */\n      dup1\n        /* \"#utility.yul\":3245:3251   */\n      0x00\n        /* \"#utility.yul\":3253:3259   */\n      dup1\n        /* \"#utility.yul\":3261:3267   */\n      0x00\n        /* \"#utility.yul\":3314:3317   */\n      0xa0\n        /* \"#utility.yul\":3302:3311   */\n      dup7\n        /* \"#utility.yul\":3293:3300   */\n      dup9\n        /* \"#utility.yul\":3289:3312   */\n      sub\n        /* \"#utility.yul\":3285:3318   */\n      slt\n        /* \"#utility.yul\":3282:3335   */\n      iszero\n      tag_138\n      jumpi\n        /* \"#utility.yul\":3331:3332   */\n      0x00\n        /* \"#utility.yul\":3328:3329   */\n      dup1\n        /* \"#utility.yul\":3321:3333   */\n      revert\n        /* \"#utility.yul\":3282:3335   */\n    tag_138:\n        /* \"#utility.yul\":3354:3393   */\n      tag_139\n        /* \"#utility.yul\":3383:3392   */\n      dup7\n        /* \"#utility.yul\":3354:3393   */\n      tag_110\n      jump\t// in\n    tag_139:\n        /* \"#utility.yul\":3433:3435   */\n      0x20\n        /* \"#utility.yul\":3418:3436   */\n      dup8\n      add\n        /* \"#utility.yul\":3412:3437   */\n      mload\n        /* \"#utility.yul\":3499:3501   */\n      0x40\n        /* \"#utility.yul\":3484:3502   */\n      dup9\n      add\n        /* \"#utility.yul\":3478:3503   */\n      mload\n        /* \"#utility.yul\":3593:3595   */\n      0x60\n        /* \"#utility.yul\":3578:3596   */\n      dup10\n      add\n        /* \"#utility.yul\":3572:3597   */\n      mload\n        /* \"#utility.yul\":3344:3393   */\n      swap3\n      swap8\n      pop\n        /* \"#utility.yul\":3412:3437   */\n      swap1\n      swap6\n      pop\n        /* \"#utility.yul\":3478:3503   */\n      swap4\n      pop\n        /* \"#utility.yul\":3572:3597   */\n      swap2\n      pop\n        /* \"#utility.yul\":3642:3691   */\n      tag_140\n        /* \"#utility.yul\":3686:3689   */\n      0x80\n        /* \"#utility.yul\":3671:3690   */\n      dup8\n      add\n        /* \"#utility.yul\":3642:3691   */\n      tag_110\n      jump\t// in\n    tag_140:\n        /* \"#utility.yul\":3632:3691   */\n      swap1\n      pop\n        /* \"#utility.yul\":3126:3697   */\n      swap3\n      swap6\n      pop\n      swap3\n      swap6\n      swap1\n      swap4\n      pop\n      jump\t// out\n        /* \"#utility.yul\":3702:3939   */\n    tag_101:\n        /* \"#utility.yul\":3774:3783   */\n      dup1\n      dup3\n      mul\n        /* \"#utility.yul\":3741:3748   */\n      0x00\n        /* \"#utility.yul\":3799:3808   */\n      dup3\n      slt\n      shl(0xff, 0x01)\n        /* \"#utility.yul\":3810:3828   */\n      dup5\n      eq\n        /* \"#utility.yul\":3795:3829   */\n      and\n        /* \"#utility.yul\":3792:3852   */\n      iszero\n      tag_143\n      jumpi\n        /* \"#utility.yul\":3832:3850   */\n      tag_143\n      tag_109\n      jump\t// in\n    tag_143:\n        /* \"#utility.yul\":3905:3906   */\n      dup2\n        /* \"#utility.yul\":3896:3903   */\n      dup2\n        /* \"#utility.yul\":3891:3907   */\n      sdiv\n        /* \"#utility.yul\":3888:3889   */\n      dup4\n        /* \"#utility.yul\":3885:3908   */\n      eq\n        /* \"#utility.yul\":3881:3882   */\n      dup3\n        /* \"#utility.yul\":3874:3883   */\n      iszero\n        /* \"#utility.yul\":3871:3909   */\n      or\n        /* \"#utility.yul\":3861:3933   */\n      tag_123\n      jumpi\n        /* \"#utility.yul\":3913:3931   */\n      tag_123\n      tag_109\n      jump\t// in\n\n    auxdata: 0xa2646970667358221220d8c89fe53dfd2f1f6855716787a6d58d87f4626a8c459007e9157aabed345cd364736f6c634300081a0033\n}\n",
				"bytecode": {
					"linkReferences": {},
					"object": "6080604052348015600e575f80fd5b50600280546001600160a01b031916331790556106d08061002e5f395ff3fe608060405260043610610073575f3560e01c80636b69a5921161004d5780636b69a592146100f0578063b60d428814610082578063dba6335f1461010c578063dc0d3dff1461014357610082565b80630d8e6e2c1461008a5780633ccfd60b146100b15780633e47d6f3146100c557610082565b3661008257610080610162565b005b610080610162565b348015610095575f80fd5b5061009e61022d565b6040519081526020015b60405180910390f35b3480156100bc575f80fd5b506100806102ac565b3480156100d0575f80fd5b5061009e6100df36600461052d565b5f6020819052908152604090205481565b3480156100fb575f80fd5b5061009e6802b5e3af16b188000081565b348015610117575f80fd5b5060025461012b906001600160a01b031681565b6040516001600160a01b0390911681526020016100a8565b34801561014e575f80fd5b5061012b61015d36600461055a565b6103c4565b6802b5e3af16b1880000610175346103ec565b10156101c85760405162461bcd60e51b815260206004820152601b60248201527f596f75206e65656420746f207370656e64206d6f72652045544821000000000060448201526064015b60405180910390fd5b335f90815260208190526040812080543492906101e6908490610585565b90915550506001805480820182555f919091527fb10e2d527612073b26eecdfd717e6a320cf44b4afac2b0732d9fcbe2b7fa0cf60180546001600160a01b03191633179055565b5f8073694aa1769357215de4fac081bf1f309adc3253069050806001600160a01b03166354fd4d506040518163ffffffff1660e01b8152600401602060405180830381865afa158015610282573d5f803e3d5ffd5b505050506040513d601f19601f820116820180604052508101906102a6919061059e565b91505090565b6002546001600160a01b031633146102d7576040516330cd747160e01b815260040160405180910390fd5b5f5b600154811015610320575f600182815481106102f7576102f76105b5565b5f9182526020808320909101546001600160a01b031682528190526040812055506001016102d9565b50604080515f815260208101918290525161033d916001916104b6565b506040515f90339047908381818185875af1925050503d805f811461037d576040519150601f19603f3d011682016040523d82523d5f602084013e610382565b606091505b50509050806103c15760405162461bcd60e51b815260206004820152600b60248201526a10d85b1b0819985a5b195960aa1b60448201526064016101bf565b50565b600181815481106103d3575f80fd5b5f918252602090912001546001600160a01b0316905081565b5f806103f661041e565b90505f670de0b6b3a764000061040c85846105c9565b61041691906105e0565b949350505050565b5f8073694aa1769357215de4fac081bf1f309adc32530690505f816001600160a01b031663feaf968c6040518163ffffffff1660e01b815260040160a060405180830381865afa158015610474573d5f803e3d5ffd5b505050506040513d601f19601f82011682018060405250810190610498919061061d565b505050915050806402540be4006104af919061066b565b9250505090565b828054828255905f5260205f20908101928215610509579160200282015b8281111561050957825182546001600160a01b0319166001600160a01b039091161782556020909201916001909101906104d4565b50610515929150610519565b5090565b5b80821115610515575f815560010161051a565b5f6020828403121561053d575f80fd5b81356001600160a01b0381168114610553575f80fd5b9392505050565b5f6020828403121561056a575f80fd5b5035919050565b634e487b7160e01b5f52601160045260245ffd5b8082018082111561059857610598610571565b92915050565b5f602082840312156105ae575f80fd5b5051919050565b634e487b7160e01b5f52603260045260245ffd5b808202811582820484141761059857610598610571565b5f826105fa57634e487b7160e01b5f52601260045260245ffd5b500490565b805169ffffffffffffffffffff81168114610618575f80fd5b919050565b5f805f805f60a08688031215610631575f80fd5b61063a866105ff565b6020870151604088015160608901519297509095509350915061065f608087016105ff565b90509295509295909350565b8082025f8212600160ff1b8414161561068657610686610571565b81810583148215176105985761059861057156fea2646970667358221220d8c89fe53dfd2f1f6855716787a6d58d87f4626a8c459007e9157aabed345cd364736f6c634300081a0033",
					"opcodes": "PUSH1 0x80 PUSH1 0x40 MSTORE CALLVALUE DUP1 ISZERO PUSH1 0xE JUMPI PUSH0 DUP1 REVERT JUMPDEST POP PUSH1 0x2 DUP1 SLOAD PUSH1 0x1 PUSH1 0x1 PUSH1 0xA0 SHL SUB NOT AND CALLER OR SWAP1 SSTORE PUSH2 0x6D0 DUP1 PUSH2 0x2E PUSH0 CODECOPY PUSH0 RETURN INVALID PUSH1 0x80 PUSH1 0x40 MSTORE PUSH1 0x4 CALLDATASIZE LT PUSH2 0x73 JUMPI PUSH0 CALLDATALOAD PUSH1 0xE0 SHR DUP1 PUSH4 0x6B69A592 GT PUSH2 0x4D JUMPI DUP1 PUSH4 0x6B69A592 EQ PUSH2 0xF0 JUMPI DUP1 PUSH4 0xB60D4288 EQ PUSH2 0x82 JUMPI DUP1 PUSH4 0xDBA6335F EQ PUSH2 0x10C JUMPI DUP1 PUSH4 0xDC0D3DFF EQ PUSH2 0x143 JUMPI PUSH2 0x82 JUMP JUMPDEST DUP1 PUSH4 0xD8E6E2C EQ PUSH2 0x8A JUMPI DUP1 PUSH4 0x3CCFD60B EQ PUSH2 0xB1 JUMPI DUP1 PUSH4 0x3E47D6F3 EQ PUSH2 0xC5 JUMPI PUSH2 0x82 JUMP JUMPDEST CALLDATASIZE PUSH2 0x82 JUMPI PUSH2 0x80 PUSH2 0x162 JUMP JUMPDEST STOP JUMPDEST PUSH2 0x80 PUSH2 0x162 JUMP JUMPDEST CALLVALUE DUP1 ISZERO PUSH2 0x95 JUMPI PUSH0 DUP1 REVERT JUMPDEST POP PUSH2 0x9E PUSH2 0x22D JUMP JUMPDEST PUSH1 0x40 MLOAD SWAP1 DUP2 MSTORE PUSH1 0x20 ADD JUMPDEST PUSH1 0x40 MLOAD DUP1 SWAP2 SUB SWAP1 RETURN JUMPDEST CALLVALUE DUP1 ISZERO PUSH2 0xBC JUMPI PUSH0 DUP1 REVERT JUMPDEST POP PUSH2 0x80 PUSH2 0x2AC JUMP JUMPDEST CALLVALUE DUP1 ISZERO PUSH2 0xD0 JUMPI PUSH0 DUP1 REVERT JUMPDEST POP PUSH2 0x9E PUSH2 0xDF CALLDATASIZE PUSH1 0x4 PUSH2 0x52D JUMP JUMPDEST PUSH0 PUSH1 0x20 DUP2 SWAP1 MSTORE SWAP1 DUP2 MSTORE PUSH1 0x40 SWAP1 KECCAK256 SLOAD DUP2 JUMP JUMPDEST CALLVALUE DUP1 ISZERO PUSH2 0xFB JUMPI PUSH0 DUP1 REVERT JUMPDEST POP PUSH2 0x9E PUSH9 0x2B5E3AF16B1880000 DUP2 JUMP JUMPDEST CALLVALUE DUP1 ISZERO PUSH2 0x117 JUMPI PUSH0 DUP1 REVERT JUMPDEST POP PUSH1 0x2 SLOAD PUSH2 0x12B SWAP1 PUSH1 0x1 PUSH1 0x1 PUSH1 0xA0 SHL SUB AND DUP2 JUMP JUMPDEST PUSH1 0x40 MLOAD PUSH1 0x1 PUSH1 0x1 PUSH1 0xA0 SHL SUB SWAP1 SWAP2 AND DUP2 MSTORE PUSH1 0x20 ADD PUSH2 0xA8 JUMP JUMPDEST CALLVALUE DUP1 ISZERO PUSH2 0x14E JUMPI PUSH0 DUP1 REVERT JUMPDEST POP PUSH2 0x12B PUSH2 0x15D CALLDATASIZE PUSH1 0x4 PUSH2 0x55A JUMP JUMPDEST PUSH2 0x3C4 JUMP JUMPDEST PUSH9 0x2B5E3AF16B1880000 PUSH2 0x175 CALLVALUE PUSH2 0x3EC JUMP JUMPDEST LT ISZERO PUSH2 0x1C8 JUMPI PUSH1 0x40 MLOAD PUSH3 0x461BCD PUSH1 0xE5 SHL DUP2 MSTORE PUSH1 0x20 PUSH1 0x4 DUP3 ADD MSTORE PUSH1 0x1B PUSH1 0x24 DUP3 ADD MSTORE PUSH32 0x596F75206E65656420746F207370656E64206D6F726520455448210000000000 PUSH1 0x44 DUP3 ADD MSTORE PUSH1 0x64 ADD JUMPDEST PUSH1 0x40 MLOAD DUP1 SWAP2 SUB SWAP1 REVERT JUMPDEST CALLER PUSH0 SWAP1 DUP2 MSTORE PUSH1 0x20 DUP2 SWAP1 MSTORE PUSH1 0x40 DUP2 KECCAK256 DUP1 SLOAD CALLVALUE SWAP3 SWAP1 PUSH2 0x1E6 SWAP1 DUP5 SWAP1 PUSH2 0x585 JUMP JUMPDEST SWAP1 SWAP2 SSTORE POP POP PUSH1 0x1 DUP1 SLOAD DUP1 DUP3 ADD DUP3 SSTORE PUSH0 SWAP2 SWAP1 SWAP2 MSTORE PUSH32 0xB10E2D527612073B26EECDFD717E6A320CF44B4AFAC2B0732D9FCBE2B7FA0CF6 ADD DUP1 SLOAD PUSH1 0x1 PUSH1 0x1 PUSH1 0xA0 SHL SUB NOT AND CALLER OR SWAP1 SSTORE JUMP JUMPDEST PUSH0 DUP1 PUSH20 0x694AA1769357215DE4FAC081BF1F309ADC325306 SWAP1 POP DUP1 PUSH1 0x1 PUSH1 0x1 PUSH1 0xA0 SHL SUB AND PUSH4 0x54FD4D50 PUSH1 0x40 MLOAD DUP2 PUSH4 0xFFFFFFFF AND PUSH1 0xE0 SHL DUP2 MSTORE PUSH1 0x4 ADD PUSH1 0x20 PUSH1 0x40 MLOAD DUP1 DUP4 SUB DUP2 DUP7 GAS STATICCALL ISZERO DUP1 ISZERO PUSH2 0x282 JUMPI RETURNDATASIZE PUSH0 DUP1 RETURNDATACOPY RETURNDATASIZE PUSH0 REVERT JUMPDEST POP POP POP POP PUSH1 0x40 MLOAD RETURNDATASIZE PUSH1 0x1F NOT PUSH1 0x1F DUP3 ADD AND DUP3 ADD DUP1 PUSH1 0x40 MSTORE POP DUP2 ADD SWAP1 PUSH2 0x2A6 SWAP2 SWAP1 PUSH2 0x59E JUMP JUMPDEST SWAP2 POP POP SWAP1 JUMP JUMPDEST PUSH1 0x2 SLOAD PUSH1 0x1 PUSH1 0x1 PUSH1 0xA0 SHL SUB AND CALLER EQ PUSH2 0x2D7 JUMPI PUSH1 0x40 MLOAD PUSH4 0x30CD7471 PUSH1 0xE0 SHL DUP2 MSTORE PUSH1 0x4 ADD PUSH1 0x40 MLOAD DUP1 SWAP2 SUB SWAP1 REVERT JUMPDEST PUSH0 JUMPDEST PUSH1 0x1 SLOAD DUP2 LT ISZERO PUSH2 0x320 JUMPI PUSH0 PUSH1 0x1 DUP3 DUP2 SLOAD DUP2 LT PUSH2 0x2F7 JUMPI PUSH2 0x2F7 PUSH2 0x5B5 JUMP JUMPDEST PUSH0 SWAP2 DUP3 MSTORE PUSH1 0x20 DUP1 DUP4 KECCAK256 SWAP1 SWAP2 ADD SLOAD PUSH1 0x1 PUSH1 0x1 PUSH1 0xA0 SHL SUB AND DUP3 MSTORE DUP2 SWAP1 MSTORE PUSH1 0x40 DUP2 KECCAK256 SSTORE POP PUSH1 0x1 ADD PUSH2 0x2D9 JUMP JUMPDEST POP PUSH1 0x40 DUP1 MLOAD PUSH0 DUP2 MSTORE PUSH1 0x20 DUP2 ADD SWAP2 DUP3 SWAP1 MSTORE MLOAD PUSH2 0x33D SWAP2 PUSH1 0x1 SWAP2 PUSH2 0x4B6 JUMP JUMPDEST POP PUSH1 0x40 MLOAD PUSH0 SWAP1 CALLER SWAP1 SELFBALANCE SWAP1 DUP4 DUP2 DUP2 DUP2 DUP6 DUP8 GAS CALL SWAP3 POP POP POP RETURNDATASIZE DUP1 PUSH0 DUP2 EQ PUSH2 0x37D JUMPI PUSH1 0x40 MLOAD SWAP2 POP PUSH1 0x1F NOT PUSH1 0x3F RETURNDATASIZE ADD AND DUP3 ADD PUSH1 0x40 MSTORE RETURNDATASIZE DUP3 MSTORE RETURNDATASIZE PUSH0 PUSH1 0x20 DUP5 ADD RETURNDATACOPY PUSH2 0x382 JUMP JUMPDEST PUSH1 0x60 SWAP2 POP JUMPDEST POP POP SWAP1 POP DUP1 PUSH2 0x3C1 JUMPI PUSH1 0x40 MLOAD PUSH3 0x461BCD PUSH1 0xE5 SHL DUP2 MSTORE PUSH1 0x20 PUSH1 0x4 DUP3 ADD MSTORE PUSH1 0xB PUSH1 0x24 DUP3 ADD MSTORE PUSH11 0x10D85B1B0819985A5B1959 PUSH1 0xAA SHL PUSH1 0x44 DUP3 ADD MSTORE PUSH1 0x64 ADD PUSH2 0x1BF JUMP JUMPDEST POP JUMP JUMPDEST PUSH1 0x1 DUP2 DUP2 SLOAD DUP2 LT PUSH2 0x3D3 JUMPI PUSH0 DUP1 REVERT JUMPDEST PUSH0 SWAP2 DUP3 MSTORE PUSH1 0x20 SWAP1 SWAP2 KECCAK256 ADD SLOAD PUSH1 0x1 PUSH1 0x1 PUSH1 0xA0 SHL SUB AND SWAP1 POP DUP2 JUMP JUMPDEST PUSH0 DUP1 PUSH2 0x3F6 PUSH2 0x41E JUMP JUMPDEST SWAP1 POP PUSH0 PUSH8 0xDE0B6B3A7640000 PUSH2 0x40C DUP6 DUP5 PUSH2 0x5C9 JUMP JUMPDEST PUSH2 0x416 SWAP2 SWAP1 PUSH2 0x5E0 JUMP JUMPDEST SWAP5 SWAP4 POP POP POP POP JUMP JUMPDEST PUSH0 DUP1 PUSH20 0x694AA1769357215DE4FAC081BF1F309ADC325306 SWAP1 POP PUSH0 DUP2 PUSH1 0x1 PUSH1 0x1 PUSH1 0xA0 SHL SUB AND PUSH4 0xFEAF968C PUSH1 0x40 MLOAD DUP2 PUSH4 0xFFFFFFFF AND PUSH1 0xE0 SHL DUP2 MSTORE PUSH1 0x4 ADD PUSH1 0xA0 PUSH1 0x40 MLOAD DUP1 DUP4 SUB DUP2 DUP7 GAS STATICCALL ISZERO DUP1 ISZERO PUSH2 0x474 JUMPI RETURNDATASIZE PUSH0 DUP1 RETURNDATACOPY RETURNDATASIZE PUSH0 REVERT JUMPDEST POP POP POP POP PUSH1 0x40 MLOAD RETURNDATASIZE PUSH1 0x1F NOT PUSH1 0x1F DUP3 ADD AND DUP3 ADD DUP1 PUSH1 0x40 MSTORE POP DUP2 ADD SWAP1 PUSH2 0x498 SWAP2 SWAP1 PUSH2 0x61D JUMP JUMPDEST POP POP POP SWAP2 POP POP DUP1 PUSH5 0x2540BE400 PUSH2 0x4AF SWAP2 SWAP1 PUSH2 0x66B JUMP JUMPDEST SWAP3 POP POP POP SWAP1 JUMP JUMPDEST DUP3 DUP1 SLOAD DUP3 DUP3 SSTORE SWAP1 PUSH0 MSTORE PUSH1 0x20 PUSH0 KECCAK256 SWAP1 DUP2 ADD SWAP3 DUP3 ISZERO PUSH2 0x509 JUMPI SWAP2 PUSH1 0x20 MUL DUP3 ADD JUMPDEST DUP3 DUP2 GT ISZERO PUSH2 0x509 JUMPI DUP3 MLOAD DUP3 SLOAD PUSH1 0x1 PUSH1 0x1 PUSH1 0xA0 SHL SUB NOT AND PUSH1 0x1 PUSH1 0x1 PUSH1 0xA0 SHL SUB SWAP1 SWAP2 AND OR DUP3 SSTORE PUSH1 0x20 SWAP1 SWAP3 ADD SWAP2 PUSH1 0x1 SWAP1 SWAP2 ADD SWAP1 PUSH2 0x4D4 JUMP JUMPDEST POP PUSH2 0x515 SWAP3 SWAP2 POP PUSH2 0x519 JUMP JUMPDEST POP SWAP1 JUMP JUMPDEST JUMPDEST DUP1 DUP3 GT ISZERO PUSH2 0x515 JUMPI PUSH0 DUP2 SSTORE PUSH1 0x1 ADD PUSH2 0x51A JUMP JUMPDEST PUSH0 PUSH1 0x20 DUP3 DUP5 SUB SLT ISZERO PUSH2 0x53D JUMPI PUSH0 DUP1 REVERT JUMPDEST DUP2 CALLDATALOAD PUSH1 0x1 PUSH1 0x1 PUSH1 0xA0 SHL SUB DUP2 AND DUP2 EQ PUSH2 0x553 JUMPI PUSH0 DUP1 REVERT JUMPDEST SWAP4 SWAP3 POP POP POP JUMP JUMPDEST PUSH0 PUSH1 0x20 DUP3 DUP5 SUB SLT ISZERO PUSH2 0x56A JUMPI PUSH0 DUP1 REVERT JUMPDEST POP CALLDATALOAD SWAP2 SWAP1 POP JUMP JUMPDEST PUSH4 0x4E487B71 PUSH1 0xE0 SHL PUSH0 MSTORE PUSH1 0x11 PUSH1 0x4 MSTORE PUSH1 0x24 PUSH0 REVERT JUMPDEST DUP1 DUP3 ADD DUP1 DUP3 GT ISZERO PUSH2 0x598 JUMPI PUSH2 0x598 PUSH2 0x571 JUMP JUMPDEST SWAP3 SWAP2 POP POP JUMP JUMPDEST PUSH0 PUSH1 0x20 DUP3 DUP5 SUB SLT ISZERO PUSH2 0x5AE JUMPI PUSH0 DUP1 REVERT JUMPDEST POP MLOAD SWAP2 SWAP1 POP JUMP JUMPDEST PUSH4 0x4E487B71 PUSH1 0xE0 SHL PUSH0 MSTORE PUSH1 0x32 PUSH1 0x4 MSTORE PUSH1 0x24 PUSH0 REVERT JUMPDEST DUP1 DUP3 MUL DUP2 ISZERO DUP3 DUP3 DIV DUP5 EQ OR PUSH2 0x598 JUMPI PUSH2 0x598 PUSH2 0x571 JUMP JUMPDEST PUSH0 DUP3 PUSH2 0x5FA JUMPI PUSH4 0x4E487B71 PUSH1 0xE0 SHL PUSH0 MSTORE PUSH1 0x12 PUSH1 0x4 MSTORE PUSH1 0x24 PUSH0 REVERT JUMPDEST POP DIV SWAP1 JUMP JUMPDEST DUP1 MLOAD PUSH10 0xFFFFFFFFFFFFFFFFFFFF DUP2 AND DUP2 EQ PUSH2 0x618 JUMPI PUSH0 DUP1 REVERT JUMPDEST SWAP2 SWAP1 POP JUMP JUMPDEST PUSH0 DUP1 PUSH0 DUP1 PUSH0 PUSH1 0xA0 DUP7 DUP9 SUB SLT ISZERO PUSH2 0x631 JUMPI PUSH0 DUP1 REVERT JUMPDEST PUSH2 0x63A DUP7 PUSH2 0x5FF JUMP JUMPDEST PUSH1 0x20 DUP8 ADD MLOAD PUSH1 0x40 DUP9 ADD MLOAD PUSH1 0x60 DUP10 ADD MLOAD SWAP3 SWAP8 POP SWAP1 SWAP6 POP SWAP4 POP SWAP2 POP PUSH2 0x65F PUSH1 0x80 DUP8 ADD PUSH2 0x5FF JUMP JUMPDEST SWAP1 POP SWAP3 SWAP6 POP SWAP3 SWAP6 SWAP1 SWAP4 POP JUMP JUMPDEST DUP1 DUP3 MUL PUSH0 DUP3 SLT PUSH1 0x1 PUSH1 0xFF SHL DUP5 EQ AND ISZERO PUSH2 0x686 JUMPI PUSH2 0x686 PUSH2 0x571 JUMP JUMPDEST DUP2 DUP2 SDIV DUP4 EQ DUP3 ISZERO OR PUSH2 0x598 JUMPI PUSH2 0x598 PUSH2 0x571 JUMP INVALID LOG2 PUSH5 0x6970667358 0x22 SLT KECCAK256 0xD8 0xC8 SWAP16 0xE5 RETURNDATASIZE REVERT 0x2F 0x1F PUSH9 0x55716787A6D58D87F4 PUSH3 0x6A8C45 SWAP1 SMOD 0xE9 ISZERO PUSH27 0xABED345CD364736F6C634300081A00330000000000000000000000 "
				},
				"gasEstimates": {
					"creation": {
						"codeDepositCost": "348800",
						"executionCost": "24619",
						"totalCost": "373419"
					},
					"external": {
						"": "infinite",
						"MINIMUM_USD()": "183",
						"addressToAmountFunded(address)": "2518",
						"fund()": "infinite",
						"funders(uint256)": "4677",
						"getVersion()": "infinite",
						"i_owner()": "2380",
						"withdraw()": "infinite"
					}
				},
				"methodIdentifiers": {
					"MINIMUM_USD()": "6b69a592",
					"addressToAmountFunded(address)": "3e47d6f3",
					"fund()": "b60d4288",
					"funders(uint256)": "dc0d3dff",
					"getVersion()": "0d8e6e2c",
					"i_owner()": "dba6335f",
					"withdraw()": "3ccfd60b"
				}
			},
			"storageLayout": {
				"storage": [
					{
						"astId": 58,
						"contract": "contracts/FundMe.sol:FundMe",
						"label": "addressToAmountFunded",
						"offset": 0,
						"slot": "0",
						"type": "t_mapping(t_address,t_uint256)"
					},
					{
						"astId": 61,
						"contract": "contracts/FundMe.sol:FundMe",
						"label": "funders",
						"offset": 0,
						"slot": "1",
						"type": "t_array(t_address)dyn_storage"
					},
					{
						"astId": 63,
						"contract": "contracts/FundMe.sol:FundMe",
						"label": "i_owner",
						"offset": 0,
						"slot": "2",
						"type": "t_address"
					}
				],
				"types": {
					"t_address": {
						"encoding": "inplace",
						"label": "address",
						"numberOfBytes": "20"
					},
					"t_array(t_address)dyn_storage": {
						"base": "t_address",
						"encoding": "dynamic_array",
						"label": "address[]",
						"numberOfBytes": "32"
					},
					"t_mapping(t_address,t_uint256)": {
						"encoding": "mapping",
						"key": "t_address",
						"label": "mapping(address => uint256)",
						"numberOfBytes": "32",
						"value": "t_uint256"
					},
					"t_uint256": {
						"encoding": "inplace",
						"label": "uint256",
						"numberOfBytes": "32"
					}
				}
			},
			"userdoc": {
				"kind": "user",
				"methods": {},
				"version": 1
			}
		}
	}
}