{
	"data": {
		"bytecode": {
			"linkReferences": {},
			"object": "60806040525f805460ff191660ff179055348015601a575f80fd5b50608d8060265f395ff3fe6080604052348015600e575f80fd5b50600436106030575f3560e01c806345964e9e1460345780634f2be91f146055575b5f80fd5b5f54603f9060ff1681565b60405160ff909116815260200160405180910390f35b00fea2646970667358221220920783060fa5a4dad6493847879407fa721733981d261478e08c1c4807c99e2364736f6c634300081a0033",
			"opcodes": "PUSH1 0x80 PUSH1 0x40 MSTORE PUSH0 DUP1 SLOAD PUSH1 0xFF NOT AND PUSH1 0xFF OR SWAP1 SSTORE CALLVALUE DUP1 ISZERO PUSH1 0x1A JUMPI PUSH0 DUP1 REVERT JUMPDEST POP PUSH1 0x8D DUP1 PUSH1 0x26 PUSH0 CODECOPY PUSH0 RETURN INVALID PUSH1 0x80 PUSH1 0x40 MSTORE CALLVALUE DUP1 ISZERO PUSH1 0xE JUMPI PUSH0 DUP1 REVERT JUMPDEST POP PUSH1 0x4 CALLDATASIZE LT PUSH1 0x30 JUMPI PUSH0 CALLDATALOAD PUSH1 0xE0 SHR DUP1 PUSH4 0x45964E9E EQ PUSH1 0x34 JUMPI DUP1 PUSH4 0x4F2BE91F EQ PUSH1 0x55 JUMPI JUMPDEST PUSH0 DUP1 REVERT JUMPDEST PUSH0 SLOAD PUSH1 0x3F SWAP1 PUSH1 0xFF AND DUP2 JUMP JUMPDEST PUSH1 0x40 MLOAD PUSH1 0xFF SWAP1 SWAP2 AND DUP2 MSTORE PUSH1 0x20 ADD PUSH1 0x40 MLOAD DUP1 SWAP2 SUB SWAP1 RETURN JUMPDEST STOP INVALID LOG2 PUSH5 0x6970667358 0x22 SLT KECCAK256 SWAP3 SMOD DUP4 MOD 0xF 0xA5 LOG4 0xDA 0xD6 BLOBHASH CODESIZE SELFBALANCE DUP8 SWAP5 SMOD STATICCALL PUSH19 0x1733981D261478E08C1C4807C99E2364736F6C PUSH4 0x4300081A STOP CALLER "
		},
		"gasEstimates": {
			"creation": {
				"codeDepositCost": "28200",
				"executionCost": "24302",
				"totalCost": "52502"
			},
			"external": {
				"add()": "119",
				"bigNumber()": "2277"
			}
		},
		"methodIdentifiers": {
			"add()": "4f2be91f",
			"bigNumber()": "45964e9e"
		}
	},
	"abi": [
		{
			"inputs": [],
			"name": "add",
			"outputs": [],
			"stateMutability": "nonpayable",
			"type": "function"
		},
		{
			"inputs": [],
			"name": "bigNumber",
			"outputs": [
				{
					"internalType": "uint8",
					"name": "",
					"type": "uint8"
				}
			],
			"stateMutability": "view",
			"type": "function"
		}
	]
}